{
  "address": "0xE11572B0F18DC78F30cDDf44c402a5B79511105A",
  "abi": [
    {
      "inputs": [
        {
          "internalType": "contract BaseRegistrarImplementation",
          "name": "_base",
          "type": "address"
        },
        {
          "internalType": "contract IPriceOracle",
          "name": "_prices",
          "type": "address"
        },
        {
          "internalType": "uint256",
          "name": "_minCommitmentAge",
          "type": "uint256"
        },
        {
          "internalType": "uint256",
          "name": "_maxCommitmentAge",
          "type": "uint256"
        },
        {
          "internalType": "contract ReverseRegistrar",
          "name": "_reverseRegistrar",
          "type": "address"
        },
        {
          "internalType": "contract INameWrapper",
          "name": "_nameWrapper",
          "type": "address"
        },
        {
          "internalType": "address",
          "name": "_backendAddress",
          "type": "address"
        },
        {
          "internalType": "uint256",
          "name": "_decenTimestamp",
          "type": "uint256"
        }
      ],
      "stateMutability": "nonpayable",
      "type": "constructor"
    },
    {
      "inputs": [
        {
          "internalType": "bytes32",
          "name": "commitment",
          "type": "bytes32"
        }
      ],
      "name": "CommitmentTooNew",
      "type": "error"
    },
    {
      "inputs": [
        {
          "internalType": "bytes32",
          "name": "commitment",
          "type": "bytes32"
        }
      ],
      "name": "CommitmentTooOld",
      "type": "error"
    },
    {
      "inputs": [
        {
          "internalType": "uint256",
          "name": "duration",
          "type": "uint256"
        }
      ],
      "name": "DurationTooShort",
      "type": "error"
    },
    {
      "inputs": [],
      "name": "InsufficientValue",
      "type": "error"
    },
    {
      "inputs": [],
      "name": "InvalidBackendSignature",
      "type": "error"
    },
    {
      "inputs": [],
      "name": "MaxCommitmentAgeTooHigh",
      "type": "error"
    },
    {
      "inputs": [],
      "name": "MaxCommitmentAgeTooLow",
      "type": "error"
    },
    {
      "inputs": [
        {
          "internalType": "string",
          "name": "name",
          "type": "string"
        }
      ],
      "name": "NameNotAvailable",
      "type": "error"
    },
    {
      "inputs": [],
      "name": "ResolverRequiredWhenDataSupplied",
      "type": "error"
    },
    {
      "inputs": [
        {
          "internalType": "bytes32",
          "name": "commitment",
          "type": "bytes32"
        }
      ],
      "name": "UnexpiredCommitmentExists",
      "type": "error"
    },
    {
      "anonymous": false,
      "inputs": [
        {
          "indexed": false,
          "internalType": "string",
          "name": "name",
          "type": "string"
        },
        {
          "indexed": true,
          "internalType": "bytes32",
          "name": "label",
          "type": "bytes32"
        },
        {
          "indexed": true,
          "internalType": "address",
          "name": "owner",
          "type": "address"
        },
        {
          "indexed": false,
          "internalType": "uint256",
          "name": "baseCost",
          "type": "uint256"
        },
        {
          "indexed": false,
          "internalType": "uint256",
          "name": "premium",
          "type": "uint256"
        },
        {
          "indexed": false,
          "internalType": "uint256",
          "name": "expires",
          "type": "uint256"
        }
      ],
      "name": "NameRegistered",
      "type": "event"
    },
    {
      "anonymous": false,
      "inputs": [
        {
          "indexed": false,
          "internalType": "string",
          "name": "name",
          "type": "string"
        },
        {
          "indexed": true,
          "internalType": "bytes32",
          "name": "label",
          "type": "bytes32"
        },
        {
          "indexed": false,
          "internalType": "uint256",
          "name": "cost",
          "type": "uint256"
        },
        {
          "indexed": false,
          "internalType": "uint256",
          "name": "expires",
          "type": "uint256"
        }
      ],
      "name": "NameRenewed",
      "type": "event"
    },
    {
      "anonymous": false,
      "inputs": [
        {
          "indexed": true,
          "internalType": "address",
          "name": "previousOwner",
          "type": "address"
        },
        {
          "indexed": true,
          "internalType": "address",
          "name": "newOwner",
          "type": "address"
        }
      ],
      "name": "OwnershipTransferred",
      "type": "event"
    },
    {
      "inputs": [],
      "name": "MIN_REGISTRATION_DURATION",
      "outputs": [
        {
          "internalType": "uint256",
          "name": "",
          "type": "uint256"
        }
      ],
      "stateMutability": "view",
      "type": "function"
    },
    {
      "inputs": [
        {
          "internalType": "string",
          "name": "name",
          "type": "string"
        }
      ],
      "name": "available",
      "outputs": [
        {
          "internalType": "bool",
          "name": "",
          "type": "bool"
        }
      ],
      "stateMutability": "view",
      "type": "function"
    },
    {
      "inputs": [],
      "name": "backendAddress",
      "outputs": [
        {
          "internalType": "address",
          "name": "",
          "type": "address"
        }
      ],
      "stateMutability": "view",
      "type": "function"
    },
    {
      "inputs": [
        {
          "internalType": "bytes32",
          "name": "commitment",
          "type": "bytes32"
        }
      ],
      "name": "commit",
      "outputs": [],
      "stateMutability": "nonpayable",
      "type": "function"
    },
    {
      "inputs": [
        {
          "internalType": "bytes32",
          "name": "",
          "type": "bytes32"
        }
      ],
      "name": "commitments",
      "outputs": [
        {
          "internalType": "uint256",
          "name": "",
          "type": "uint256"
        }
      ],
      "stateMutability": "view",
      "type": "function"
    },
    {
      "inputs": [],
      "name": "decenTimestamp",
      "outputs": [
        {
          "internalType": "uint256",
          "name": "",
          "type": "uint256"
        }
      ],
      "stateMutability": "view",
      "type": "function"
    },
    {
      "inputs": [
        {
          "internalType": "string",
          "name": "name",
          "type": "string"
        },
        {
          "internalType": "address",
          "name": "owner",
          "type": "address"
        },
        {
          "internalType": "uint256",
          "name": "duration",
          "type": "uint256"
        },
        {
          "internalType": "bytes32",
          "name": "secret",
          "type": "bytes32"
        },
        {
          "internalType": "address",
          "name": "resolver",
          "type": "address"
        },
        {
          "internalType": "bytes[]",
          "name": "data",
          "type": "bytes[]"
        },
        {
          "internalType": "bool",
          "name": "reverseRecord",
          "type": "bool"
        },
        {
          "internalType": "uint16",
          "name": "ownerControlledFuses",
          "type": "uint16"
        }
      ],
      "name": "makeCommitment",
      "outputs": [
        {
          "internalType": "bytes32",
          "name": "",
          "type": "bytes32"
        }
      ],
      "stateMutability": "pure",
      "type": "function"
    },
    {
      "inputs": [],
      "name": "maxCommitmentAge",
      "outputs": [
        {
          "internalType": "uint256",
          "name": "",
          "type": "uint256"
        }
      ],
      "stateMutability": "view",
      "type": "function"
    },
    {
      "inputs": [],
      "name": "minCommitmentAge",
      "outputs": [
        {
          "internalType": "uint256",
          "name": "",
          "type": "uint256"
        }
      ],
      "stateMutability": "view",
      "type": "function"
    },
    {
      "inputs": [],
      "name": "nameWrapper",
      "outputs": [
        {
          "internalType": "contract INameWrapper",
          "name": "",
          "type": "address"
        }
      ],
      "stateMutability": "view",
      "type": "function"
    },
    {
      "inputs": [],
      "name": "owner",
      "outputs": [
        {
          "internalType": "address",
          "name": "",
          "type": "address"
        }
      ],
      "stateMutability": "view",
      "type": "function"
    },
    {
      "inputs": [],
      "name": "prices",
      "outputs": [
        {
          "internalType": "contract IPriceOracle",
          "name": "",
          "type": "address"
        }
      ],
      "stateMutability": "view",
      "type": "function"
    },
    {
      "inputs": [
        {
          "internalType": "address",
          "name": "_token",
          "type": "address"
        },
        {
          "internalType": "address",
          "name": "_to",
          "type": "address"
        },
        {
          "internalType": "uint256",
          "name": "_amount",
          "type": "uint256"
        }
      ],
      "name": "recoverFunds",
      "outputs": [],
      "stateMutability": "nonpayable",
      "type": "function"
    },
    {
      "inputs": [
        {
          "internalType": "string",
          "name": "name",
          "type": "string"
        },
        {
          "internalType": "address",
          "name": "owner",
          "type": "address"
        },
        {
          "internalType": "uint256",
          "name": "duration",
          "type": "uint256"
        },
        {
          "internalType": "bytes32",
          "name": "secret",
          "type": "bytes32"
        },
        {
          "internalType": "address",
          "name": "resolver",
          "type": "address"
        },
        {
          "internalType": "bytes[]",
          "name": "data",
          "type": "bytes[]"
        },
        {
          "internalType": "bool",
          "name": "reverseRecord",
          "type": "bool"
        },
        {
          "internalType": "uint16",
          "name": "ownerControlledFuses",
          "type": "uint16"
        }
      ],
      "name": "register",
      "outputs": [],
      "stateMutability": "payable",
      "type": "function"
    },
    {
      "inputs": [
        {
          "internalType": "string",
          "name": "name",
          "type": "string"
        },
        {
          "internalType": "address",
          "name": "owner",
          "type": "address"
        },
        {
          "internalType": "uint256",
          "name": "duration",
          "type": "uint256"
        },
        {
          "internalType": "bytes32",
          "name": "secret",
          "type": "bytes32"
        },
        {
          "internalType": "address",
          "name": "resolver",
          "type": "address"
        },
        {
          "internalType": "bytes[]",
          "name": "data",
          "type": "bytes[]"
        },
        {
          "internalType": "bool",
          "name": "reverseRecord",
          "type": "bool"
        },
        {
          "internalType": "uint16",
          "name": "ownerControlledFuses",
          "type": "uint16"
        },
        {
          "internalType": "bytes",
          "name": "backendSignature",
          "type": "bytes"
        }
      ],
      "name": "registerWhitelisted",
      "outputs": [],
      "stateMutability": "payable",
      "type": "function"
    },
    {
      "inputs": [
        {
          "internalType": "string",
          "name": "name",
          "type": "string"
        },
        {
          "internalType": "uint256",
          "name": "duration",
          "type": "uint256"
        }
      ],
      "name": "renew",
      "outputs": [],
      "stateMutability": "payable",
      "type": "function"
    },
    {
      "inputs": [],
      "name": "renounceOwnership",
      "outputs": [],
      "stateMutability": "nonpayable",
      "type": "function"
    },
    {
      "inputs": [
        {
          "internalType": "string",
          "name": "name",
          "type": "string"
        },
        {
          "internalType": "uint256",
          "name": "duration",
          "type": "uint256"
        }
      ],
      "name": "rentPrice",
      "outputs": [
        {
          "components": [
            {
              "internalType": "uint256",
              "name": "base",
              "type": "uint256"
            },
            {
              "internalType": "uint256",
              "name": "premium",
              "type": "uint256"
            }
          ],
          "internalType": "struct IPriceOracle.Price",
          "name": "price",
          "type": "tuple"
        }
      ],
      "stateMutability": "view",
      "type": "function"
    },
    {
      "inputs": [],
      "name": "reverseRegistrar",
      "outputs": [
        {
          "internalType": "contract ReverseRegistrar",
          "name": "",
          "type": "address"
        }
      ],
      "stateMutability": "view",
      "type": "function"
    },
    {
      "inputs": [
        {
          "internalType": "bytes4",
          "name": "interfaceID",
          "type": "bytes4"
        }
      ],
      "name": "supportsInterface",
      "outputs": [
        {
          "internalType": "bool",
          "name": "",
          "type": "bool"
        }
      ],
      "stateMutability": "pure",
      "type": "function"
    },
    {
      "inputs": [
        {
          "internalType": "address",
          "name": "newOwner",
          "type": "address"
        }
      ],
      "name": "transferOwnership",
      "outputs": [],
      "stateMutability": "nonpayable",
      "type": "function"
    },
    {
      "inputs": [
        {
          "internalType": "string",
          "name": "name",
          "type": "string"
        }
      ],
      "name": "valid",
      "outputs": [
        {
          "internalType": "bool",
          "name": "",
          "type": "bool"
        }
      ],
      "stateMutability": "pure",
      "type": "function"
    },
    {
      "inputs": [],
      "name": "withdraw",
      "outputs": [],
      "stateMutability": "nonpayable",
      "type": "function"
    }
  ],
  "transactionHash": "0xe69fd29cb612d0f3c9d0c193ee7d3a8368751f5d32e6acaf999fa64bacbf5795",
  "args": [
    "0xBDD4c9b9581bFcf03A73117D2FF8c8e888F91DA8",
    "0x50F3A1Ed79E3BB04DfdCAaf5ae824Bf58369b3Dc",
    30,
    3600,
    "0x89904370d9f2F2555Ff18a73cdAAe8e7a78EaA8e",
    "0x88D711a0BAc694e7C2D71Fcd7AC7896A02970911",
    "0x000000187c72ee4a4120a3E626425595a34F185B",
    "1735689600"
  ],
  "numDeployments": 1,
  "solcInputHash": "2a8162c6a6a2e3641d95c95cb7913b80",
  "bytecode": "0x6101806040523480156200001257600080fd5b50604051620026d9380380620026d9833981016040819052620000359162000129565b6200004033620000c0565b85851162000061576040516307cb550760e31b815260040160405180910390fd5b428511156200008357604051630b4319e560e21b815260040160405180910390fd5b6001600160a01b0397881660805295871660a05260c09490945260e0929092528416610100528316610120529091166101405261016052620001c7565b600080546001600160a01b038381166001600160a01b0319831681178455604051919092169283917f8be0079c531659141344cd1fd0a4f28419497f9722a3daafe3b4186f6b6457e09190a35050565b6001600160a01b03811681146200012657600080fd5b50565b600080600080600080600080610100898b0312156200014757600080fd5b8851620001548162000110565b60208a0151909850620001678162000110565b8097505060408901519550606089015194506080890151620001898162000110565b60a08a01519094506200019c8162000110565b60c08a0151909350620001af8162000110565b8092505060e089015190509295985092959890939650565b60805160a05160c05160e0516101005161012051610140516101605161245f6200027a60003960008181610242015281816105bd01526106bf0152600081816101cc015261070e015260008181610411015281816107d00152610dab0152600081816102ec015261149601526000818161047801528181610f8901526112bd01526000818161039f01526112460152600081816104ac0152610bb7015260008181610bec0152610ef8015261245f6000f3fe6080604052600436106101805760003560e01c806383e7f6ff116100d6578063acf1a8411161007f578063d3419bf311610059578063d3419bf31461049a578063f14fcbc8146104ce578063f2fde38b146104ee57600080fd5b8063acf1a84114610433578063aeb8ce9b14610446578063ce1e09c01461046657600080fd5b80638da5cb5b116100b05780638da5cb5b146103c15780639791c097146103df578063a8e5fbc0146103ff57600080fd5b806383e7f6ff1461033b5780638a95b09f146103765780638d839ffe1461038d57600080fd5b80635d3590d51161013857806374694a2b1161011257806374694a2b146102c757806380869853146102da578063839df9451461030e57600080fd5b80635d3590d51461027257806365a69dcf14610292578063715018a6146102b257600080fd5b80631f9d92ef116101695780631f9d92ef146102065780633ccfd60b1461021b5780635c87e34f1461023057600080fd5b806301ffc9a7146101855780630d72d57f146101ba575b600080fd5b34801561019157600080fd5b506101a56101a0366004611934565b61050e565b60405190151581526020015b60405180910390f35b3480156101c657600080fd5b506101ee7f000000000000000000000000000000000000000000000000000000000000000081565b6040516001600160a01b0390911681526020016101b1565b610219610214366004611b09565b6105a7565b005b34801561022757600080fd5b506102196109b6565b34801561023c57600080fd5b506102647f000000000000000000000000000000000000000000000000000000000000000081565b6040519081526020016101b1565b34801561027e57600080fd5b5061021961028d366004611bf6565b6109f3565b34801561029e57600080fd5b506102646102ad366004611c32565b610a8d565b3480156102be57600080fd5b50610219610b2b565b6102196102d5366004611cf3565b610b3f565b3480156102e657600080fd5b506101ee7f000000000000000000000000000000000000000000000000000000000000000081565b34801561031a57600080fd5b50610264610329366004611dbd565b60016020526000908152604090205481565b34801561034757600080fd5b5061035b610356366004611dd6565b610b6d565b604080518251815260209283015192810192909252016101b1565b34801561038257600080fd5b506102646224ea0081565b34801561039957600080fd5b506102647f000000000000000000000000000000000000000000000000000000000000000081565b3480156103cd57600080fd5b506000546001600160a01b03166101ee565b3480156103eb57600080fd5b506101a56103fa366004611e1b565b610cc0565b34801561040b57600080fd5b506101ee7f000000000000000000000000000000000000000000000000000000000000000081565b610219610441366004611e50565b610cd5565b34801561045257600080fd5b506101a5610461366004611e1b565b610eaf565b34801561047257600080fd5b506102647f000000000000000000000000000000000000000000000000000000000000000081565b3480156104a657600080fd5b506101ee7f000000000000000000000000000000000000000000000000000000000000000081565b3480156104da57600080fd5b506102196104e9366004611dbd565b610f72565b3480156104fa57600080fd5b50610219610509366004611e9c565b611000565b60007fffffffff0000000000000000000000000000000000000000000000000000000082167f01ffc9a70000000000000000000000000000000000000000000000000000000014806105a157507fffffffff0000000000000000000000000000000000000000000000000000000082167f7eb31ee600000000000000000000000000000000000000000000000000000000145b92915050565b60408051808201909152348152600060208201527f0000000000000000000000000000000000000000000000000000000000000000421115610670576106248c8c8080601f0160208091040260200160405190810160405280939291908181526020018383808284376000920191909152508d9250610b6d915050565b6020810151815191925061063791611ecd565b341015610670576040517f1101129400000000000000000000000000000000000000000000000000000000815260040160405180910390fd5b60006106bb8d8d8080601f0160208091040260200160405190810160405280939291908181526020018383808284376000920191909152508f92508e91508d90508c8c8c8c8c610a8d565b90507f000000000000000000000000000000000000000000000000000000000000000042116107885760008181526001602090815260408083205481519283018590529082015246606082015261074d907f00000000000000000000000000000000000000000000000000000000000000009060800160405160208183030381529060405280519060200120866110a7565b905080610786576040517f7940edaf00000000000000000000000000000000000000000000000000000000815260040160405180910390fd5b505b6107cb8d8d8080601f0160208091040260200160405190810160405280939291908181526020018383808284376000920191909152508e925085915061122f9050565b5060007f00000000000000000000000000000000000000000000000000000000000000006001600160a01b031663a40149828e8e8e8e8d8a6040518763ffffffff1660e01b815260040161082496959493929190611f0b565b6020604051808303816000875af1158015610843573d6000803e3d6000fd5b505050506040513d601f19601f820116820180604052508101906108679190611f55565b9050851561089257610892888e8e604051610883929190611f6e565b604051809103902089896113b1565b84156108db576108db8d8d8080601f0160208091040260200160405190810160405280939291908181526020018383808284376000920191909152508c92503391506114949050565b8a6001600160a01b03168d8d6040516108f5929190611f6e565b60405180910390207f69e37f151eb98a09618ddaa80c8cfaf1ce5996867c489f45b555b412271ebf278f8f866000015187602001518760405161093c959493929190611f7e565b60405180910390a3602082015182516109559190611ecd565b3411156109a7576020820151825133916108fc916109739190611ecd565b61097d9034611faf565b6040518115909202916000818181858888f193505050501580156109a5573d6000803e3d6000fd5b505b50505050505050505050505050565b600080546040516001600160a01b03909116914780156108fc02929091818181858888f193505050501580156109f0573d6000803e3d6000fd5b50565b6109fb611548565b6040517fa9059cbb0000000000000000000000000000000000000000000000000000000081526001600160a01b0383811660048301526024820183905284169063a9059cbb906044016020604051808303816000875af1158015610a63573d6000803e3d6000fd5b505050506040513d601f19601f82011682018060405250810190610a879190611fc2565b50505050565b885160208a01206000908415801590610aad57506001600160a01b038716155b15610ae4576040517fd3f605c400000000000000000000000000000000000000000000000000000000815260040160405180910390fd5b808a8a8a8a8a8a8a8a604051602001610b059998979695949392919061208f565b604051602081830303815290604052805190602001209150509998505050505050505050565b610b33611548565b610b3d60006115bc565b565b610b618a8a8a8a8a8a8a8a8a8a604051806020016040528060008152506105a7565b50505050505050505050565b6040805180820190915260008082526020820152825160208401206040517fd6e4fa86000000000000000000000000000000000000000000000000000000008152600481018290527f00000000000000000000000000000000000000000000000000000000000000006001600160a01b03908116916350e9a7159187917f00000000000000000000000000000000000000000000000000000000000000009091169063d6e4fa8690602401602060405180830381865afa158015610c35573d6000803e3d6000fd5b505050506040513d601f19601f82011682018060405250810190610c599190611f55565b866040518463ffffffff1660e01b8152600401610c7893929190612141565b6040805180830381865afa158015610c94573d6000803e3d6000fd5b505050506040513d601f19601f82011682018060405250810190610cb89190612166565b949350505050565b60006003610ccd83611624565b101592915050565b60008383604051610ce7929190611f6e565b604080519182900382206020601f870181900481028401810190925285835292508291600091610d3491908890889081908401838280828437600092019190915250889250610b6d915050565b8051909150341015610d72576040517f1101129400000000000000000000000000000000000000000000000000000000815260040160405180910390fd5b6040517fc475abff00000000000000000000000000000000000000000000000000000000815260048101839052602481018590526000907f00000000000000000000000000000000000000000000000000000000000000006001600160a01b03169063c475abff906044016020604051808303816000875af1158015610dfc573d6000803e3d6000fd5b505050506040513d601f19601f82011682018060405250810190610e209190611f55565b8251909150341115610e6857815133906108fc90610e3e9034611faf565b6040518115909202916000818181858888f19350505050158015610e66573d6000803e3d6000fd5b505b837f3da24c024582931cfaf8267d8ed24d13a82a8068d5bd337d30ec45cea4e506ae88883485604051610e9e94939291906121b5565b60405180910390a250505050505050565b80516020820120600090610ec283610cc0565b8015610f6b57506040517f96e494e8000000000000000000000000000000000000000000000000000000008152600481018290527f00000000000000000000000000000000000000000000000000000000000000006001600160a01b0316906396e494e890602401602060405180830381865afa158015610f47573d6000803e3d6000fd5b505050506040513d601f19601f82011682018060405250810190610f6b9190611fc2565b9392505050565b6000818152600160205260409020544290610fae907f000000000000000000000000000000000000000000000000000000000000000090611ecd565b10610fed576040517f0a059d71000000000000000000000000000000000000000000000000000000008152600481018290526024015b60405180910390fd5b6000908152600160205260409020429055565b611008611548565b6001600160a01b03811661109e576040517f08c379a000000000000000000000000000000000000000000000000000000000815260206004820152602660248201527f4f776e61626c653a206e6577206f776e657220697320746865207a65726f206160448201527f64647265737300000000000000000000000000000000000000000000000000006064820152608401610fe4565b6109f0816115bc565b60008060006110b6858561182b565b909250905060008160048111156110cf576110cf6121dc565b1480156110ed5750856001600160a01b0316826001600160a01b0316145b156110fd57600192505050610f6b565b600080876001600160a01b0316631626ba7e60e01b88886040516024016111259291906121f2565b60408051601f198184030181529181526020820180517bffffffffffffffffffffffffffffffffffffffffffffffffffffffff167fffffffff00000000000000000000000000000000000000000000000000000000909416939093179092529051611190919061220b565b600060405180830381855afa9150503d80600081146111cb576040519150601f19603f3d011682016040523d82523d6000602084013e6111d0565b606091505b50915091508180156111e3575080516020145b8015611223575080517f1626ba7e00000000000000000000000000000000000000000000000000000000906112219083016020908101908401611f55565b145b98975050505050505050565b600081815260016020526040902054429061126b907f000000000000000000000000000000000000000000000000000000000000000090611ecd565b11156112a6576040517f5320bcf900000000000000000000000000000000000000000000000000000000815260048101829052602401610fe4565b60008181526001602052604090205442906112e2907f000000000000000000000000000000000000000000000000000000000000000090611ecd565b1161131c576040517fcb7690d700000000000000000000000000000000000000000000000000000000815260048101829052602401610fe4565b61132583610eaf565b61135d57826040517f477707e8000000000000000000000000000000000000000000000000000000008152600401610fe49190612227565b6000818152600160205260408120556224ea008210156113ac576040517f9a71997b00000000000000000000000000000000000000000000000000000000815260048101839052602401610fe4565b505050565b604080517f7e7650bbd57a49caffbb4c83ce43045d2653261b7953b80d47500d9eb37b6134602080830191909152818301869052825180830384018152606083019384905280519101207fe32954eb0000000000000000000000000000000000000000000000000000000090925285906001600160a01b0382169063e32954eb906114449085908890889060640161223a565b6000604051808303816000875af1158015611463573d6000803e3d6000fd5b505050506040513d6000823e601f3d908101601f1916820160405261148b919081019061225d565b50505050505050565b7f00000000000000000000000000000000000000000000000000000000000000006001600160a01b0316637a806d6b338385876040516020016114d7919061235c565b6040516020818303038152906040526040518563ffffffff1660e01b8152600401611505949392919061239d565b6020604051808303816000875af1158015611524573d6000803e3d6000fd5b505050506040513d601f19601f82011682018060405250810190610a879190611f55565b6000546001600160a01b03163314610b3d576040517f08c379a000000000000000000000000000000000000000000000000000000000815260206004820181905260248201527f4f776e61626c653a2063616c6c6572206973206e6f7420746865206f776e65726044820152606401610fe4565b600080546001600160a01b038381167fffffffffffffffffffffffff0000000000000000000000000000000000000000831681178455604051919092169283917f8be0079c531659141344cd1fd0a4f28419497f9722a3daafe3b4186f6b6457e09190a35050565b8051600090819081905b8082101561182257600085838151811061164a5761164a6123db565b01602001517fff000000000000000000000000000000000000000000000000000000000000001690507f80000000000000000000000000000000000000000000000000000000000000008110156116ad576116a6600184611ecd565b925061180f565b7fe0000000000000000000000000000000000000000000000000000000000000007fff0000000000000000000000000000000000000000000000000000000000000082161015611702576116a6600284611ecd565b7ff0000000000000000000000000000000000000000000000000000000000000007fff0000000000000000000000000000000000000000000000000000000000000082161015611757576116a6600384611ecd565b7ff8000000000000000000000000000000000000000000000000000000000000007fff00000000000000000000000000000000000000000000000000000000000000821610156117ac576116a6600484611ecd565b7ffc000000000000000000000000000000000000000000000000000000000000007fff0000000000000000000000000000000000000000000000000000000000000082161015611801576116a6600584611ecd565b61180c600684611ecd565b92505b508261181a816123f1565b93505061162e565b50909392505050565b60008082516041036118615760208301516040840151606085015160001a61185587828585611870565b94509450505050611869565b506000905060025b9250929050565b6000807f7fffffffffffffffffffffffffffffff5d576e7357a4501ddfe92f46681b20a08311156118a7575060009050600361192b565b6040805160008082526020820180845289905260ff881692820192909252606081018690526080810185905260019060a0016020604051602081039080840390855afa1580156118fb573d6000803e3d6000fd5b5050604051601f1901519150506001600160a01b0381166119245760006001925092505061192b565b9150600090505b94509492505050565b60006020828403121561194657600080fd5b81357fffffffff0000000000000000000000000000000000000000000000000000000081168114610f6b57600080fd5b60008083601f84011261198857600080fd5b50813567ffffffffffffffff8111156119a057600080fd5b60208301915083602082850101111561186957600080fd5b80356001600160a01b03811681146119cf57600080fd5b919050565b60008083601f8401126119e657600080fd5b50813567ffffffffffffffff8111156119fe57600080fd5b6020830191508360208260051b850101111561186957600080fd5b80151581146109f057600080fd5b80356119cf81611a19565b803561ffff811681146119cf57600080fd5b634e487b7160e01b600052604160045260246000fd5b604051601f8201601f1916810167ffffffffffffffff81118282101715611a8357611a83611a44565b604052919050565b600067ffffffffffffffff821115611aa557611aa5611a44565b50601f01601f191660200190565b600082601f830112611ac457600080fd5b8135611ad7611ad282611a8b565b611a5a565b818152846020838601011115611aec57600080fd5b816020850160208301376000918101602001919091529392505050565b60008060008060008060008060008060006101208c8e031215611b2b57600080fd5b67ffffffffffffffff808d351115611b4257600080fd5b611b4f8e8e358f01611976565b909c509a50611b6060208e016119b8565b995060408d0135985060608d01359750611b7c60808e016119b8565b96508060a08e01351115611b8f57600080fd5b611b9f8e60a08f01358f016119d4565b9096509450611bb060c08e01611a27565b9350611bbe60e08e01611a32565b9250806101008e01351115611bd257600080fd5b50611be48d6101008e01358e01611ab3565b90509295989b509295989b9093969950565b600080600060608486031215611c0b57600080fd5b611c14846119b8565b9250611c22602085016119b8565b9150604084013590509250925092565b60008060008060008060008060006101008a8c031215611c5157600080fd5b893567ffffffffffffffff80821115611c6957600080fd5b611c758d838e01611ab3565b9a50611c8360208d016119b8565b995060408c0135985060608c01359750611c9f60808d016119b8565b965060a08c0135915080821115611cb557600080fd5b50611cc28c828d016119d4565b90955093505060c08a0135611cd681611a19565b9150611ce460e08b01611a32565b90509295985092959850929598565b6000806000806000806000806000806101008b8d031215611d1357600080fd5b8a3567ffffffffffffffff80821115611d2b57600080fd5b611d378e838f01611976565b909c509a508a9150611d4b60208e016119b8565b995060408d0135985060608d01359750611d6760808e016119b8565b965060a08d0135915080821115611d7d57600080fd5b50611d8a8d828e016119d4565b90955093505060c08b0135611d9e81611a19565b9150611dac60e08c01611a32565b90509295989b9194979a5092959850565b600060208284031215611dcf57600080fd5b5035919050565b60008060408385031215611de957600080fd5b823567ffffffffffffffff811115611e0057600080fd5b611e0c85828601611ab3565b95602094909401359450505050565b600060208284031215611e2d57600080fd5b813567ffffffffffffffff811115611e4457600080fd5b610cb884828501611ab3565b600080600060408486031215611e6557600080fd5b833567ffffffffffffffff811115611e7c57600080fd5b611e8886828701611976565b909790965060209590950135949350505050565b600060208284031215611eae57600080fd5b610f6b826119b8565b634e487b7160e01b600052601160045260246000fd5b808201808211156105a1576105a1611eb7565b818352818160208501375060006020828401015260006020601f19601f840116840101905092915050565b60a081526000611f1f60a08301888a611ee0565b90506001600160a01b03808716602084015285604084015280851660608401525061ffff83166080830152979650505050505050565b600060208284031215611f6757600080fd5b5051919050565b8183823760009101908152919050565b608081526000611f92608083018789611ee0565b602083019590955250604081019290925260609091015292915050565b818103818111156105a1576105a1611eb7565b600060208284031215611fd457600080fd5b8151610f6b81611a19565b81835260006020808501808196508560051b810191508460005b8781101561208257828403895281357fffffffffffffffffffffffffffffffffffffffffffffffffffffffffffffffe188360301811261203857600080fd5b8701858101903567ffffffffffffffff81111561205457600080fd5b80360382131561206357600080fd5b61206e868284611ee0565b9a87019a9550505090840190600101611ff9565b5091979650505050505050565b60006101008b83526001600160a01b03808c1660208501528a60408501528960608501528089166080850152508060a08401526120cf8184018789611fdf565b94151560c0840152505061ffff9190911660e090910152979650505050505050565b60005b8381101561210c5781810151838201526020016120f4565b50506000910152565b6000815180845261212d8160208601602086016120f1565b601f01601f19169290920160200192915050565b6060815260006121546060830186612115565b60208301949094525060400152919050565b60006040828403121561217857600080fd5b6040516040810181811067ffffffffffffffff8211171561219b5761219b611a44565b604052825181526020928301519281019290925250919050565b6060815260006121c9606083018688611ee0565b6020830194909452506040015292915050565b634e487b7160e01b600052602160045260246000fd5b828152604060208201526000610cb86040830184612115565b6000825161221d8184602087016120f1565b9190910192915050565b602081526000610f6b6020830184612115565b838152604060208201526000612254604083018486611fdf565b95945050505050565b6000602080838503121561227057600080fd5b825167ffffffffffffffff8082111561228857600080fd5b818501915085601f83011261229c57600080fd5b8151818111156122ae576122ae611a44565b8060051b6122bd858201611a5a565b91825283810185019185810190898411156122d757600080fd5b86860192505b8383101561234f578251858111156122f55760008081fd5b8601603f81018b136123075760008081fd5b878101516040612319611ad283611a8b565b8281528d8284860101111561232e5760008081fd5b61233d838c83018487016120f1565b855250505091860191908601906122dd565b9998505050505050505050565b6000825161236e8184602087016120f1565b7f2e65746800000000000000000000000000000000000000000000000000000000920191825250600401919050565b60006001600160a01b0380871683528086166020840152808516604084015250608060608301526123d16080830184612115565b9695505050505050565b634e487b7160e01b600052603260045260246000fd5b60007fffffffffffffffffffffffffffffffffffffffffffffffffffffffffffffffff820361242257612422611eb7565b506001019056fea264697066735822122058e65247ad35bb4249f7d7d053d47e070c60e4d06dd13d8450a1e32625f02c8c64736f6c63430008110033",
  "devdoc": {
    "details": "A registrar controller for registering and renewing names at fixed cost.",
    "kind": "dev",
    "methods": {
      "owner()": {
        "details": "Returns the address of the current owner."
      },
      "recoverFunds(address,address,uint256)": {
        "details": "The contract is Ownable and only the owner can call the recover function.",
        "params": {
          "_amount": "The amount of tokens to recover.",
          "_to": "The address to send the tokens to.",
          "_token": "The address of the ERC20 token to recover"
        }
      },
      "renounceOwnership()": {
        "details": "Leaves the contract without owner. It will not be possible to call `onlyOwner` functions anymore. Can only be called by the current owner. NOTE: Renouncing ownership will leave the contract without an owner, thereby removing any functionality that is only available to the owner."
      },
      "transferOwnership(address)": {
        "details": "Transfers ownership of the contract to a new account (`newOwner`). Can only be called by the current owner."
      }
    },
    "version": 1
  },
  "userdoc": {
    "kind": "user",
    "methods": {
      "recoverFunds(address,address,uint256)": {
        "notice": "Recover ERC20 tokens sent to the contract by mistake."
      }
    },
    "version": 1
  },
  "storageLayout": {
    "storage": [
      {
        "astId": 7,
        "contract": "contracts/ethregistrar/ETHRegistrarController.sol:ETHRegistrarController",
        "label": "_owner",
        "offset": 0,
        "slot": "0",
        "type": "t_address"
      },
      {
        "astId": 4157,
        "contract": "contracts/ethregistrar/ETHRegistrarController.sol:ETHRegistrarController",
        "label": "commitments",
        "offset": 0,
        "slot": "1",
        "type": "t_mapping(t_bytes32,t_uint256)"
      }
    ],
    "types": {
      "t_address": {
        "encoding": "inplace",
        "label": "address",
        "numberOfBytes": "20"
      },
      "t_bytes32": {
        "encoding": "inplace",
        "label": "bytes32",
        "numberOfBytes": "32"
      },
      "t_mapping(t_bytes32,t_uint256)": {
        "encoding": "mapping",
        "key": "t_bytes32",
        "label": "mapping(bytes32 => uint256)",
        "numberOfBytes": "32",
        "value": "t_uint256"
      },
      "t_uint256": {
        "encoding": "inplace",
        "label": "uint256",
        "numberOfBytes": "32"
      }
    }
  }
}