{
  "address": "0x50F3A1Ed79E3BB04DfdCAaf5ae824Bf58369b3Dc",
  "abi": [
    {
      "inputs": [
        {
          "internalType": "uint256",
          "name": "_rentPrices",
          "type": "uint256"
        }
      ],
      "stateMutability": "nonpayable",
      "type": "constructor"
    },
    {
      "inputs": [],
      "name": "NameTooShort",
      "type": "error"
    },
    {
      "anonymous": false,
      "inputs": [
        {
          "indexed": false,
          "internalType": "uint256[]",
          "name": "prices",
          "type": "uint256[]"
        }
      ],
      "name": "RentPriceChanged",
      "type": "event"
    },
    {
      "inputs": [
        {
          "internalType": "string",
          "name": "name",
          "type": "string"
        },
        {
          "internalType": "uint256",
          "name": "expires",
          "type": "uint256"
        },
        {
          "internalType": "uint256",
          "name": "duration",
          "type": "uint256"
        }
      ],
      "name": "premium",
      "outputs": [
        {
          "internalType": "uint256",
          "name": "",
          "type": "uint256"
        }
      ],
      "stateMutability": "view",
      "type": "function"
    },
    {
      "inputs": [
        {
          "internalType": "string",
          "name": "name",
          "type": "string"
        },
        {
          "internalType": "uint256",
          "name": "expires",
          "type": "uint256"
        },
        {
          "internalType": "uint256",
          "name": "duration",
          "type": "uint256"
        }
      ],
      "name": "price",
      "outputs": [
        {
          "components": [
            {
              "internalType": "uint256",
              "name": "base",
              "type": "uint256"
            },
            {
              "internalType": "uint256",
              "name": "premium",
              "type": "uint256"
            }
          ],
          "internalType": "struct IPriceOracle.Price",
          "name": "",
          "type": "tuple"
        }
      ],
      "stateMutability": "view",
      "type": "function"
    },
    {
      "inputs": [],
      "name": "rentPrice",
      "outputs": [
        {
          "internalType": "uint256",
          "name": "",
          "type": "uint256"
        }
      ],
      "stateMutability": "view",
      "type": "function"
    },
    {
      "inputs": [
        {
          "internalType": "bytes4",
          "name": "interfaceID",
          "type": "bytes4"
        }
      ],
      "name": "supportsInterface",
      "outputs": [
        {
          "internalType": "bool",
          "name": "",
          "type": "bool"
        }
      ],
      "stateMutability": "view",
      "type": "function"
    }
  ],
  "transactionHash": "0xe9cec71db1ac633f86112f5c535d24b24be62813c7a81b00441ac480920f3635",
  "args": [
    "3000000000000000"
  ],
  "numDeployments": 1,
  "solcInputHash": "35a637ae501ebdf08f63d76912abeaf5",
  "bytecode": "0x60a060405234801561001057600080fd5b5060405161072138038061072183398101604081905261002f91610037565b608052610050565b60006020828403121561004957600080fd5b5051919050565b6080516106b06100716000396000818160cd01526101e101526106b06000f3fe608060405234801561001057600080fd5b506004361061004c5760003560e01c806301ffc9a71461005157806350e9a71514610079578063a34e3596146100a7578063f8af64ed146100c8575b600080fd5b61006461005f366004610509565b6100ef565b60405190151581526020015b60405180910390f35b61008c610087366004610552565b610188565b60408051825181526020928301519281019290925201610070565b6100ba6100b5366004610552565b6102a8565b604051908152602001610070565b6100ba7f000000000000000000000000000000000000000000000000000000000000000081565b60007fffffffff0000000000000000000000000000000000000000000000000000000082167f01ffc9a700000000000000000000000000000000000000000000000000000000148061018257507fffffffff0000000000000000000000000000000000000000000000000000000082167f50e9a71500000000000000000000000000000000000000000000000000000000145b92915050565b604080518082019091526000808252602082015260006101dd86868080601f0160208091040260200160405190810160405280939291908181526020018383808284376000920191909152506102f992505050565b90507f0000000000000000000000000000000000000000000000000000000000000000600382101561023b576040517fcb58bcce00000000000000000000000000000000000000000000000000000000815260040160405180910390fd5b604051806040016040528061024d8390565b815260200161029b6102988a8a8080601f0160208091040260200160405190810160405280939291908181526020018383808284376000920191909152508c92508b91506105009050565b90565b9052979650505050505050565b60006102f061029886868080601f0160208091040260200160405190810160405280939291908181526020018383808284376000920191909152508892508791506105009050565b95945050505050565b8051600090819081905b808210156104f757600085838151811061031f5761031f6105d1565b01602001517fff000000000000000000000000000000000000000000000000000000000000001690507f80000000000000000000000000000000000000000000000000000000000000008110156103825761037b60018461062f565b92506104e4565b7fe0000000000000000000000000000000000000000000000000000000000000007fff00000000000000000000000000000000000000000000000000000000000000821610156103d75761037b60028461062f565b7ff0000000000000000000000000000000000000000000000000000000000000007fff000000000000000000000000000000000000000000000000000000000000008216101561042c5761037b60038461062f565b7ff8000000000000000000000000000000000000000000000000000000000000007fff00000000000000000000000000000000000000000000000000000000000000821610156104815761037b60048461062f565b7ffc000000000000000000000000000000000000000000000000000000000000007fff00000000000000000000000000000000000000000000000000000000000000821610156104d65761037b60058461062f565b6104e160068461062f565b92505b50826104ef81610642565b935050610303565b50909392505050565b60009392505050565b60006020828403121561051b57600080fd5b81357fffffffff000000000000000000000000000000000000000000000000000000008116811461054b57600080fd5b9392505050565b6000806000806060858703121561056857600080fd5b843567ffffffffffffffff8082111561058057600080fd5b818701915087601f83011261059457600080fd5b8135818111156105a357600080fd5b8860208285010111156105b557600080fd5b6020928301999098509187013596604001359550909350505050565b7f4e487b7100000000000000000000000000000000000000000000000000000000600052603260045260246000fd5b7f4e487b7100000000000000000000000000000000000000000000000000000000600052601160045260246000fd5b8082018082111561018257610182610600565b60007fffffffffffffffffffffffffffffffffffffffffffffffffffffffffffffffff820361067357610673610600565b506001019056fea264697066735822122066c1e9652fdc30393b1105f5112bf7094cdcd834afaeda788316c3db3f70e40964736f6c63430008110033",
  "devdoc": {
    "kind": "dev",
    "methods": {
      "premium(string,uint256,uint256)": {
        "details": "Returns the pricing premium in wei."
      },
      "price(string,uint256,uint256)": {
        "details": "Returns the price to register or renew a name.",
        "params": {
          "duration": "How long the name is being registered or extended for, in seconds.",
          "expires": "When the name presently expires (0 if this is a new registration).",
          "name": "The name being registered or renewed."
        },
        "returns": {
          "_0": "base premium tuple of base price + premium price"
        }
      }
    },
    "version": 1
  },
  "userdoc": {
    "kind": "user",
    "methods": {},
    "version": 1
  },
  "storageLayout": {
    "storage": [],
    "types": null
  }
}