{
  "address": "0x7ea371F41061c23eE00FB9268b611829Df743c3B",
  "abi": [
    {
      "inputs": [
        {
          "internalType": "address",
          "name": "_owner",
          "type": "address"
        },
        {
          "internalType": "contract INameWrapperRegistry",
          "name": "_registry",
          "type": "address"
        }
      ],
      "stateMutability": "nonpayable",
      "type": "constructor"
    },
    {
      "inputs": [],
      "name": "DiamondWritable__InvalidInitializationParameters",
      "type": "error"
    },
    {
      "inputs": [],
      "name": "DiamondWritable__RemoveTargetNotZeroAddress",
      "type": "error"
    },
    {
      "inputs": [],
      "name": "DiamondWritable__ReplaceTargetIsIdentical",
      "type": "error"
    },
    {
      "inputs": [],
      "name": "DiamondWritable__SelectorAlreadyAdded",
      "type": "error"
    },
    {
      "inputs": [],
      "name": "DiamondWritable__SelectorIsImmutable",
      "type": "error"
    },
    {
      "inputs": [],
      "name": "DiamondWritable__SelectorNotFound",
      "type": "error"
    },
    {
      "inputs": [],
      "name": "DiamondWritable__SelectorNotSpecified",
      "type": "error"
    },
    {
      "inputs": [],
      "name": "DiamondWritable__TargetHasNoCode",
      "type": "error"
    },
    {
      "inputs": [],
      "name": "ERC165Base__InvalidInterfaceId",
      "type": "error"
    },
    {
      "inputs": [],
      "name": "NotDiamondOwner",
      "type": "error"
    },
    {
      "inputs": [],
      "name": "Ownable__NotOwner",
      "type": "error"
    },
    {
      "inputs": [],
      "name": "Ownable__NotTransitiveOwner",
      "type": "error"
    },
    {
      "inputs": [],
      "name": "Proxy__ImplementationIsNotContract",
      "type": "error"
    },
    {
      "inputs": [],
      "name": "SafeOwnable__NotNomineeOwner",
      "type": "error"
    },
    {
      "inputs": [],
      "name": "Unauthorised",
      "type": "error"
    },
    {
      "anonymous": false,
      "inputs": [
        {
          "indexed": true,
          "internalType": "address",
          "name": "owner",
          "type": "address"
        },
        {
          "indexed": true,
          "internalType": "address",
          "name": "operator",
          "type": "address"
        },
        {
          "indexed": false,
          "internalType": "bool",
          "name": "approved",
          "type": "bool"
        }
      ],
      "name": "ApprovalForAll",
      "type": "event"
    },
    {
      "anonymous": false,
      "inputs": [
        {
          "indexed": false,
          "internalType": "address",
          "name": "owner",
          "type": "address"
        },
        {
          "indexed": true,
          "internalType": "bytes32",
          "name": "node",
          "type": "bytes32"
        },
        {
          "indexed": true,
          "internalType": "address",
          "name": "delegate",
          "type": "address"
        },
        {
          "indexed": true,
          "internalType": "bool",
          "name": "approved",
          "type": "bool"
        }
      ],
      "name": "Approved",
      "type": "event"
    },
    {
      "anonymous": false,
      "inputs": [
        {
          "indexed": true,
          "internalType": "address",
          "name": "cloner",
          "type": "address"
        },
        {
          "indexed": true,
          "internalType": "address",
          "name": "resolver",
          "type": "address"
        }
      ],
      "name": "CloneDiamondResolver",
      "type": "event"
    },
    {
      "anonymous": false,
      "inputs": [
        {
          "components": [
            {
              "internalType": "address",
              "name": "target",
              "type": "address"
            },
            {
              "internalType": "enum IDiamondWritableInternal.FacetCutAction",
              "name": "action",
              "type": "uint8"
            },
            {
              "internalType": "bytes4[]",
              "name": "selectors",
              "type": "bytes4[]"
            }
          ],
          "indexed": false,
          "internalType": "struct IDiamondWritableInternal.FacetCut[]",
          "name": "facetCuts",
          "type": "tuple[]"
        },
        {
          "indexed": false,
          "internalType": "address",
          "name": "target",
          "type": "address"
        },
        {
          "indexed": false,
          "internalType": "bytes",
          "name": "data",
          "type": "bytes"
        }
      ],
      "name": "DiamondCut",
      "type": "event"
    },
    {
      "anonymous": false,
      "inputs": [
        {
          "indexed": true,
          "internalType": "address",
          "name": "previousOwner",
          "type": "address"
        },
        {
          "indexed": true,
          "internalType": "address",
          "name": "newOwner",
          "type": "address"
        }
      ],
      "name": "OwnershipTransferred",
      "type": "event"
    },
    {
      "anonymous": false,
      "inputs": [
        {
          "indexed": true,
          "internalType": "bytes32",
          "name": "node",
          "type": "bytes32"
        },
        {
          "indexed": false,
          "internalType": "uint64",
          "name": "newVersion",
          "type": "uint64"
        }
      ],
      "name": "VersionChanged",
      "type": "event"
    },
    {
      "stateMutability": "payable",
      "type": "fallback"
    },
    {
      "inputs": [],
      "name": "acceptOwnership",
      "outputs": [],
      "stateMutability": "nonpayable",
      "type": "function"
    },
    {
      "inputs": [
        {
          "internalType": "bytes32",
          "name": "node",
          "type": "bytes32"
        },
        {
          "internalType": "address",
          "name": "delegate",
          "type": "address"
        },
        {
          "internalType": "bool",
          "name": "approved",
          "type": "bool"
        }
      ],
      "name": "approve",
      "outputs": [],
      "stateMutability": "nonpayable",
      "type": "function"
    },
    {
      "inputs": [
        {
          "internalType": "bytes32",
          "name": "node",
          "type": "bytes32"
        }
      ],
      "name": "clearRecords",
      "outputs": [],
      "stateMutability": "nonpayable",
      "type": "function"
    },
    {
      "inputs": [],
      "name": "clone",
      "outputs": [],
      "stateMutability": "nonpayable",
      "type": "function"
    },
    {
      "inputs": [
        {
          "components": [
            {
              "internalType": "address",
              "name": "target",
              "type": "address"
            },
            {
              "internalType": "enum IDiamondWritableInternal.FacetCutAction",
              "name": "action",
              "type": "uint8"
            },
            {
              "internalType": "bytes4[]",
              "name": "selectors",
              "type": "bytes4[]"
            }
          ],
          "internalType": "struct IDiamondWritableInternal.FacetCut[]",
          "name": "facetCuts",
          "type": "tuple[]"
        },
        {
          "internalType": "address",
          "name": "target",
          "type": "address"
        },
        {
          "internalType": "bytes",
          "name": "data",
          "type": "bytes"
        }
      ],
      "name": "diamondCut",
      "outputs": [],
      "stateMutability": "nonpayable",
      "type": "function"
    },
    {
      "inputs": [
        {
          "internalType": "bytes4",
          "name": "selector",
          "type": "bytes4"
        }
      ],
      "name": "facetAddress",
      "outputs": [
        {
          "internalType": "address",
          "name": "facet",
          "type": "address"
        }
      ],
      "stateMutability": "view",
      "type": "function"
    },
    {
      "inputs": [],
      "name": "facetAddresses",
      "outputs": [
        {
          "internalType": "address[]",
          "name": "addresses",
          "type": "address[]"
        }
      ],
      "stateMutability": "view",
      "type": "function"
    },
    {
      "inputs": [
        {
          "internalType": "address",
          "name": "facet",
          "type": "address"
        }
      ],
      "name": "facetFunctionSelectors",
      "outputs": [
        {
          "internalType": "bytes4[]",
          "name": "selectors",
          "type": "bytes4[]"
        }
      ],
      "stateMutability": "view",
      "type": "function"
    },
    {
      "inputs": [],
      "name": "facets",
      "outputs": [
        {
          "components": [
            {
              "internalType": "address",
              "name": "target",
              "type": "address"
            },
            {
              "internalType": "bytes4[]",
              "name": "selectors",
              "type": "bytes4[]"
            }
          ],
          "internalType": "struct IDiamondReadable.Facet[]",
          "name": "diamondFacets",
          "type": "tuple[]"
        }
      ],
      "stateMutability": "view",
      "type": "function"
    },
    {
      "inputs": [],
      "name": "getFallbackAddress",
      "outputs": [
        {
          "internalType": "address",
          "name": "fallbackAddress",
          "type": "address"
        }
      ],
      "stateMutability": "view",
      "type": "function"
    },
    {
      "inputs": [
        {
          "internalType": "bytes4",
          "name": "sig",
          "type": "bytes4"
        }
      ],
      "name": "getImplementation",
      "outputs": [
        {
          "internalType": "address",
          "name": "implementation",
          "type": "address"
        }
      ],
      "stateMutability": "view",
      "type": "function"
    },
    {
      "inputs": [
        {
          "internalType": "address",
          "name": "_owner",
          "type": "address"
        },
        {
          "internalType": "address",
          "name": "_fallback",
          "type": "address"
        }
      ],
      "name": "initialize",
      "outputs": [],
      "stateMutability": "nonpayable",
      "type": "function"
    },
    {
      "inputs": [
        {
          "internalType": "address",
          "name": "owner",
          "type": "address"
        },
        {
          "internalType": "bytes32",
          "name": "node",
          "type": "bytes32"
        },
        {
          "internalType": "address",
          "name": "delegate",
          "type": "address"
        }
      ],
      "name": "isApprovedFor",
      "outputs": [
        {
          "internalType": "bool",
          "name": "",
          "type": "bool"
        }
      ],
      "stateMutability": "view",
      "type": "function"
    },
    {
      "inputs": [
        {
          "internalType": "address",
          "name": "account",
          "type": "address"
        },
        {
          "internalType": "address",
          "name": "operator",
          "type": "address"
        }
      ],
      "name": "isApprovedForAll",
      "outputs": [
        {
          "internalType": "bool",
          "name": "",
          "type": "bool"
        }
      ],
      "stateMutability": "view",
      "type": "function"
    },
    {
      "inputs": [
        {
          "internalType": "bytes[]",
          "name": "data",
          "type": "bytes[]"
        }
      ],
      "name": "multicall",
      "outputs": [
        {
          "internalType": "bytes[]",
          "name": "results",
          "type": "bytes[]"
        }
      ],
      "stateMutability": "nonpayable",
      "type": "function"
    },
    {
      "inputs": [
        {
          "internalType": "bytes32",
          "name": "nodehash",
          "type": "bytes32"
        },
        {
          "internalType": "bytes[]",
          "name": "data",
          "type": "bytes[]"
        }
      ],
      "name": "multicallWithNodeCheck",
      "outputs": [
        {
          "internalType": "bytes[]",
          "name": "results",
          "type": "bytes[]"
        }
      ],
      "stateMutability": "nonpayable",
      "type": "function"
    },
    {
      "inputs": [],
      "name": "nomineeOwner",
      "outputs": [
        {
          "internalType": "address",
          "name": "",
          "type": "address"
        }
      ],
      "stateMutability": "view",
      "type": "function"
    },
    {
      "inputs": [],
      "name": "owner",
      "outputs": [
        {
          "internalType": "address",
          "name": "",
          "type": "address"
        }
      ],
      "stateMutability": "view",
      "type": "function"
    },
    {
      "inputs": [
        {
          "internalType": "bytes32",
          "name": "node",
          "type": "bytes32"
        }
      ],
      "name": "recordVersions",
      "outputs": [
        {
          "internalType": "uint64",
          "name": "",
          "type": "uint64"
        }
      ],
      "stateMutability": "view",
      "type": "function"
    },
    {
      "inputs": [],
      "name": "registry",
      "outputs": [
        {
          "internalType": "contract INameWrapperRegistry",
          "name": "",
          "type": "address"
        }
      ],
      "stateMutability": "view",
      "type": "function"
    },
    {
      "inputs": [
        {
          "internalType": "address",
          "name": "operator",
          "type": "address"
        },
        {
          "internalType": "bool",
          "name": "approved",
          "type": "bool"
        }
      ],
      "name": "setApprovalForAll",
      "outputs": [],
      "stateMutability": "nonpayable",
      "type": "function"
    },
    {
      "inputs": [
        {
          "internalType": "address",
          "name": "fallbackAddress",
          "type": "address"
        }
      ],
      "name": "setFallbackAddress",
      "outputs": [],
      "stateMutability": "nonpayable",
      "type": "function"
    },
    {
      "inputs": [
        {
          "internalType": "bytes4[]",
          "name": "interfaceId",
          "type": "bytes4[]"
        },
        {
          "internalType": "bool",
          "name": "status",
          "type": "bool"
        }
      ],
      "name": "setMultiSupportsInterface",
      "outputs": [],
      "stateMutability": "nonpayable",
      "type": "function"
    },
    {
      "inputs": [
        {
          "internalType": "bytes4",
          "name": "interfaceId",
          "type": "bytes4"
        },
        {
          "internalType": "bool",
          "name": "status",
          "type": "bool"
        }
      ],
      "name": "setSupportsInterface",
      "outputs": [],
      "stateMutability": "nonpayable",
      "type": "function"
    },
    {
      "inputs": [
        {
          "internalType": "bytes4",
          "name": "interfaceID",
          "type": "bytes4"
        }
      ],
      "name": "supportsInterface",
      "outputs": [
        {
          "internalType": "bool",
          "name": "",
          "type": "bool"
        }
      ],
      "stateMutability": "view",
      "type": "function"
    },
    {
      "inputs": [
        {
          "internalType": "address",
          "name": "account",
          "type": "address"
        }
      ],
      "name": "transferOwnership",
      "outputs": [],
      "stateMutability": "nonpayable",
      "type": "function"
    },
    {
      "stateMutability": "payable",
      "type": "receive"
    }
  ],
  "transactionHash": "0xcf20348bce588077062c2a6f323e3474e0a0f4accaaa252074ce44e627ced9b4",
  "args": [
    "0x35D3935C54430e5D661F253e1A1fFc147b9dDd77",
    "0x5B553f1FFA77d191FFef026ab41fAe2DF7C3e9DF"
  ],
  "numDeployments": 1,
  "solcInputHash": "22d6988ecad493e5a6293e26d37c8db9",
  "bytecode": "0x60a06040523480156200001157600080fd5b5060405162004f9938038062004f998339810160408190526200003491620011e9565b816200004281600062000056565b506001600160a01b031660805250620013f5565b620000628282620003b4565b6001600160a01b0381166200036057604080516008808252610120820190925260009160208201610100803683370190505090506000637b10399960e01b8282620000ad8162001228565b935081518110620000c257620000c262001250565b6001600160e01b03199092166020928302919091019091015263a22cb46560e01b8282620000f08162001228565b93508151811062000105576200010562001250565b6001600160e01b03199092166020928302919091019091015263e985e9c560e01b8282620001338162001228565b93508151811062000148576200014862001250565b6001600160e01b03199092166020928302919091019091015263a4b91a0160e01b8282620001768162001228565b9350815181106200018b576200018b62001250565b6001600160e01b0319909216602092830291909101909101526354bc259f60e11b8282620001b98162001228565b935081518110620001ce57620001ce62001250565b6001600160e01b03199092166020928302919091019091015263d700ff3360e01b8282620001fc8162001228565b93508151811062000211576200021162001250565b6001600160e01b0319909216602092830291909101909101526306c07aeb60e31b82826200023f8162001228565b93508151811062000254576200025462001250565b6001600160e01b0319909216602092830291909101909101526309ed460760e01b8282620002828162001228565b93508151811062000297576200029762001250565b6001600160e01b03199290921660209283029190910190910152604080516001808252818301909252600091816020015b60408051606080820183526000808352602083015291810191909152815260200190600190039081620002c8579050506040805160608101909152308152909150602081016000815260200184815250816000815181106200032e576200032e62001250565b60200260200101819052506200035c816000604051806020016040528060008152506200093260201b60201c565b5050505b62000374637b10399960e01b600162000b33565b6200038863e103286b60e01b600162000b33565b6200039c637b10399960e01b600162000b33565b620003b06309ed460760e01b600162000b33565b5050565b7fb40d49f5a32ade8065d600aab18d96945a09d7fbb3e248099e22f7c4c10e01898054819060ff16156200041c5760405162461bcd60e51b815260206004820152600b60248201526a125b9a5d1a585b1a5e995960aa1b604482015260640160405180910390fd5b6001600160a01b0383166200086e5760408051600d8082526101c08201909252600091602082016101a0803683370190505090506000632c40805960e01b8282620004678162001228565b9350815181106200047c576200047c62001250565b6001600160e01b031990921660209283029190910190910152639142376560e01b8282620004aa8162001228565b935081518110620004bf57620004bf62001250565b6001600160e01b03199092166020928302919091019091015263dc9cc64560e01b8282620004ed8162001228565b93508151811062000502576200050262001250565b6001600160e01b0319909216602092830291909101909101526307e4c70760e21b8282620005308162001228565b93508151811062000545576200054562001250565b6001600160e01b031990921660209283029190910190910152637a0ed62760e01b8282620005738162001228565b93508151811062000588576200058862001250565b6001600160e01b0319909216602092830291909101909101526356fe50af60e11b8282620005b68162001228565b935081518110620005cb57620005cb62001250565b6001600160e01b0319909216602092830291909101909101526314bbdacb60e21b8282620005f98162001228565b9350815181106200060e576200060e62001250565b6001600160e01b0319909216602092830291909101909101526366ffd66360e11b82826200063c8162001228565b93508151811062000651576200065162001250565b6001600160e01b0319909216602092830291909101909101526301ffc9a760e01b82826200067f8162001228565b93508151811062000694576200069462001250565b6001600160e01b031990921660209283029190910190910152638da5cb5b60e01b8282620006c28162001228565b935081518110620006d757620006d762001250565b6001600160e01b03199092166020928302919091019091015263455a8a8560e11b8282620007058162001228565b9350815181106200071a576200071a62001250565b6001600160e01b03199092166020928302919091019091015263f2fde38b60e01b8282620007488162001228565b9350815181106200075d576200075d62001250565b6001600160e01b0319909216602092830291909101909101526379ba509760e01b82826200078b8162001228565b935081518110620007a057620007a062001250565b6001600160e01b03199290921660209283029190910190910152604080516001808252818301909252600091816020015b60408051606080820183526000808352602083015291810191909152815260200190600190039081620007d15790505060408051606081019091523081529091506020810160008152602001848152508160008151811062000837576200083762001250565b602002602001018190525062000865816000604051806020016040528060008152506200093260201b60201c565b505050620008a9565b7f177481ac65e4292921c69f62d1cc7f57541261e5d61c8175cf4e36a01c9bfc9680546001600160a01b0319166001600160a01b0385161790555b620008bd63dc9cc64560e01b600162000b33565b620008d1632f40adcf60e21b600162000b33565b620008e56307e4c70760e21b600162000b33565b620008f96348e2b09360e01b600162000b33565b6200090d6301ffc9a760e01b600162000b33565b620009216307f5828d60e41b600162000b33565b6200092c8462000baa565b50505050565b7f177481ac65e4292921c69f62d1cc7f57541261e5d61c8175cf4e36a01c9bfc94547f177481ac65e4292921c69f62d1cc7f57541261e5d61c8175cf4e36a01c9bfc939061ffff811690819060009060071615620009a25750600381901c60009081526002840160205260409020545b60005b875181101562000aa1576000888281518110620009c657620009c662001250565b6020026020010151905060008160200151905081604001515160000362000a005760405163eb6c3aeb60e01b815260040160405180910390fd5b600081600281111562000a175762000a1762001266565b0362000a365762000a2b8786868562000c24565b909550935062000a96565b600181600281111562000a4d5762000a4d62001266565b0362000a655762000a5f878362000d6c565b62000a96565b600281600281111562000a7c5762000a7c62001266565b0362000a965762000a908786868562000ebb565b90955093505b5050600101620009a5565b5082821462000abe5760018401805461ffff191661ffff84161790555b600782161562000ae157600382901c600090815260028501602052604090208190555b7f8faa70878671ccd212d20771b795c50af8fd3ff6cf27f4bde57e5d4de0aeb67387878760405162000b1693929190620012d0565b60405180910390a162000b2a8686620010e7565b50505050505050565b6001600160e01b0319808316900362000b5f5760405163b0a19dd560e01b815260040160405180910390fd5b6001600160e01b03199190911660009081527ffc606c433378e3a7e0a6a531deac289b66caa1b4aa8554fd4ab2c6f1570f92d860205260409020805460ff1916911515919091179055565b7f8a22373512790c48b83a1fe2efdd2888d4a917bcdc24d0adf63e60f67168046080546040516001600160a01b038481169216907f8be0079c531659141344cd1fd0a4f28419497f9722a3daafe3b4186f6b6457e090600090a380546001600160a01b0319166001600160a01b0392909216919091179055565b805160009081906001600160a01b0316301480159062000c4d575082516001600160a01b03163b155b1562000c6c57604051633ddc5cab60e21b815260040160405180910390fd5b60005b83604001515181101562000d5f5760008460400151828151811062000c985762000c9862001250565b6020908102919091018101516001600160e01b031981166000908152918a9052604090912054909150606081901c1562000ce557604051634923a77160e11b815260040160405180910390fd5b85516001600160e01b0319838116600081815260208d90526040902060609390931b6001600160601b0319168b1790925560058a901b60e090811692831c91831c1999909916179781900362000d4f57600389901c600090815260028b0160205260408120989098555b5050506001958601950162000c6f565b5093959294509192505050565b80516001600160a01b03163b62000d9657604051633ddc5cab60e21b815260040160405180910390fd5b60005b81604001515181101562000eb65760008260400151828151811062000dc25762000dc262001250565b6020908102919091018101516001600160e01b03198116600090815291869052604090912054909150606081901c8062000e0f576040516337e25a9760e11b815260040160405180910390fd5b306001600160a01b0382160362000e395760405163e983573160e01b815260040160405180910390fd5b84600001516001600160a01b0316816001600160a01b03160362000e70576040516330baabf360e11b815260040160405180910390fd5b5083516001600160e01b031992909216600090815260208690526040902060609290921b6001600160601b0319166001600160601b039190911617905560010162000d99565b505050565b805160009081906001600160a01b03161562000eea57604051633ab3490960e21b815260040160405180910390fd5b600385901c6007861660005b856040015151811015620010d35760008660400151828151811062000f1f5762000f1f62001250565b6020908102919091018101516001600160e01b031981166000908152918c9052604090912054909150606081901c62000f6b576040516337e25a9760e11b815260040160405180910390fd5b30606082901c0362000f905760405163e983573160e01b815260040160405180910390fd5b600089900362000fbe57600019909401600081815260028c0160205260409020549850936007935062000fc6565b600019909301925b600584901b89901b6000806001600160e01b03198084169086161462001019576001600160e01b03198316600090815260208f90526040902080546001600160601b0319166001600160601b0386161790555b50506001600160e01b03198316600090815260208d90526040812055611fff600383901c1660e0600584901b168782146200107e57600082815260028f016020526040902080546001600160e01b031980841c19909116908516831c179055620010a2565b80836001600160e01b031916901c816001600160e01b031960001b901c198d16179b505b86600003620010c157600088815260028f01602052604081208190559b505b50506001909301925062000ef6915050565b5060039190911b1796939550929350505050565b8051156001600160a01b038316151462001114576040516326df4ccd60e01b815260040160405180910390fd5b6001600160a01b03821615620003b0576001600160a01b03821630146200115e576001600160a01b0382163b6200115e57604051633ddc5cab60e21b815260040160405180910390fd5b6000826001600160a01b0316826040516200117a9190620013d7565b600060405180830381855af49150503d8060008114620011b7576040519150601f19603f3d011682016040523d82523d6000602084013e620011bc565b606091505b505090508062000eb6573d6000803e3d6000fd5b6001600160a01b0381168114620011e657600080fd5b50565b60008060408385031215620011fd57600080fd5b82516200120a81620011d0565b60208401519092506200121d81620011d0565b809150509250929050565b6000600182016200124957634e487b7160e01b600052601160045260246000fd5b5060010190565b634e487b7160e01b600052603260045260246000fd5b634e487b7160e01b600052602160045260246000fd5b60005b83811015620012995781810151838201526020016200127f565b50506000910152565b60008151808452620012bc8160208601602086016200127c565b601f01601f19169290920160200192915050565b60006060808301818452808751808352608092508286019150828160051b8701016020808b0160005b84811015620013a557898403607f19018652815180516001600160a01b031685528381015189860190600381106200134157634e487b7160e01b600052602160045260246000fd5b868601526040918201519186018a905281519081905290840190600090898701905b808310156200138f5783516001600160e01b031916825292860192600192909201919086019062001363565b50978501979550505090820190600101620012f9565b50506001600160a01b038a16908801528681036040880152620013c98189620012a2565b9a9950505050505050505050565b60008251620013eb8184602087016200127c565b9190910192915050565b608051613b886200141160003960006103a10152613b886000f3fe6080604052600436106101a55760003560e01c80638da5cb5b116100e1578063adfca15e1161008a578063dc9cc64511610064578063dc9cc64514610559578063e32954eb14610579578063e985e9c514610599578063f2fde38b146105b9576101ac565b8063adfca15e1461049a578063cdffacc6146104c7578063d700ff3314610520576101ac565b8063a4b91a01116100bb578063a4b91a011461042d578063a9784b3e1461044d578063ac9650d81461046d576101ac565b80638da5cb5b146103d857806391423765146103ed578063a22cb4651461040d576101ac565b806352ef6b2c1161014e57806379ba50971161012857806379ba5097146103585780637a0ed6271461036d5780637b1039991461038f5780638ab5150a146103c3576101ac565b806352ef6b2c146102f657806354e7796f14610318578063717dbd4c14610338576101ac565b80632c4080591161017f5780632c408059146102895780633603d758146102b6578063485cc955146102d6576101ac565b806301ffc9a71461021f57806309ed4607146102545780631f931c1c14610269576101ac565b366101ac57005b60006101b66105d9565b90506001600160a01b0381163b6101f9576040517f87c9fc3400000000000000000000000000000000000000000000000000000000815260040160405180910390fd5b3660008037600080366000845af43d6000803e808015610218573d6000f35b3d6000fd5b005b34801561022b57600080fd5b5061023f61023a3660046131c6565b6105f5565b60405190151581526020015b60405180910390f35b34801561026057600080fd5b5061021d61063a565b34801561027557600080fd5b5061021d610284366004613242565b6106f9565b34801561029557600080fd5b5061029e610783565b6040516001600160a01b03909116815260200161024b565b3480156102c257600080fd5b5061021d6102d13660046132f1565b6107b6565b3480156102e257600080fd5b5061021d6102f136600461330a565b610803565b34801561030257600080fd5b5061030b610bff565b60405161024b9190613343565b34801561032457600080fd5b5061021d61033336600461339e565b610dd5565b34801561034457600080fd5b5061021d6103533660046134d0565b610e42565b34801561036457600080fd5b5061021d610ee3565b34801561037957600080fd5b50610382610f3f565b60405161024b919061355c565b34801561039b57600080fd5b5061029e7f000000000000000000000000000000000000000000000000000000000000000081565b3480156103cf57600080fd5b5061029e6113ee565b3480156103e457600080fd5b5061029e6113f8565b3480156103f957600080fd5b5061021d6104083660046135d9565b611402565b34801561041957600080fd5b5061021d6104283660046135f6565b611488565b34801561043957600080fd5b5061021d610448366004613614565b611492565b34801561045957600080fd5b5061023f610468366004613656565b6114a2565b34801561047957600080fd5b5061048d61048836600461368d565b6114fd565b60405161024b919061371f565b3480156104a657600080fd5b506104ba6104b53660046135d9565b611512565b60405161024b9190613781565b3480156104d357600080fd5b5061029e6104e23660046131c6565b6001600160e01b03191660009081527f177481ac65e4292921c69f62d1cc7f57541261e5d61c8175cf4e36a01c9bfc93602052604090205460601c90565b34801561052c57600080fd5b5061054061053b3660046132f1565b611691565b60405167ffffffffffffffff909116815260200161024b565b34801561056557600080fd5b5061029e6105743660046131c6565b61169c565b34801561058557600080fd5b5061048d610594366004613794565b611791565b3480156105a557600080fd5b5061023f6105b436600461330a565b61179e565b3480156105c557600080fd5b5061021d6105d43660046135d9565b6117ed565b60006105f06000356001600160e01b03191661169c565b905090565b60006106008261182f565b8061063457507f4fbf0433000000000000000000000000000000000000000000000000000000006001600160e01b03198316145b92915050565b600061064530611937565b6040517f485cc9550000000000000000000000000000000000000000000000000000000081523360048201523060248201529091506001600160a01b0382169063485cc95590604401600060405180830381600087803b1580156106a857600080fd5b505af11580156106bc573d6000803e3d6000fd5b50506040516001600160a01b03841692503391507f40961b548e4af03f13fc20c42826b938367a56f2a4409159d6a597f34592605190600090a350565b6107016119d8565b6001600160a01b0316336001600160a01b03161461073257604051632f7a8ee160e01b815260040160405180910390fd5b61077c61073f85876137e0565b8484848080601f016020809104026020016040519081016040528093929190818152602001838380828437600092019190915250611a0b92505050565b5050505050565b60006105f07f177481ac65e4292921c69f62d1cc7f57541261e5d61c8175cf4e36a01c9bfc96546001600160a01b031690565b806107c081611c21565b6107f6576040517fd7a2ae6a00000000000000000000000000000000000000000000000000000000815260040160405180910390fd5b6107ff82611d09565b5050565b61080d8282611dba565b6001600160a01b038116610b8557604080516008808252610120820190925260009160208201610100803683370190505090506000637b10399960e01b8282610855816138c9565b935081518110610867576108676138e3565b6001600160e01b0319909216602092830291909101909101527fa22cb4650000000000000000000000000000000000000000000000000000000082826108ac816138c9565b9350815181106108be576108be6138e3565b6001600160e01b0319909216602092830291909101909101527fe985e9c5000000000000000000000000000000000000000000000000000000008282610903816138c9565b935081518110610915576109156138e3565b6001600160e01b0319909216602092830291909101909101527fa4b91a0100000000000000000000000000000000000000000000000000000000828261095a816138c9565b93508151811061096c5761096c6138e3565b6001600160e01b0319909216602092830291909101909101527fa9784b3e0000000000000000000000000000000000000000000000000000000082826109b1816138c9565b9350815181106109c3576109c36138e3565b6001600160e01b0319909216602092830291909101909101527fd700ff33000000000000000000000000000000000000000000000000000000008282610a08816138c9565b935081518110610a1a57610a1a6138e3565b6001600160e01b0319909216602092830291909101909101527f3603d758000000000000000000000000000000000000000000000000000000008282610a5f816138c9565b935081518110610a7157610a716138e3565b6001600160e01b0319909216602092830291909101909101527f09ed4607000000000000000000000000000000000000000000000000000000008282610ab6816138c9565b935081518110610ac857610ac86138e3565b6001600160e01b03199290921660209283029190910190910152604080516001808252818301909252600091816020015b60408051606080820183526000808352602083015291810191909152815260200190600190039081610af957905050604080516060810190915230815290915060208101600081526020018481525081600081518110610b5b57610b5b6138e3565b6020026020010181905250610b8181600060405180602001604052806000815250611a0b565b5050505b610b97637b10399960e01b6001612466565b610bc27fe103286b000000000000000000000000000000000000000000000000000000006001612466565b610bd4637b10399960e01b6001612466565b6107ff7f09ed4607000000000000000000000000000000000000000000000000000000006001612466565b7f177481ac65e4292921c69f62d1cc7f57541261e5d61c8175cf4e36a01c9bfc94546060907f177481ac65e4292921c69f62d1cc7f57541261e5d61c8175cf4e36a01c9bfc939061ffff1667ffffffffffffffff811115610c6257610c626133ca565b604051908082528060200260200182016040528015610c8b578160200160208202803683370190505b50915060008060005b600184015461ffff16821015610dcd576000818152600285016020526040812054905b6008811015610db85783610cca816138c9565b600188015490955061ffff1685119050610db857600581901b82901b6001600160e01b0319811660009081526020889052604081205460601c90805b88811015610d5b578a8181518110610d2057610d206138e3565b60200260200101516001600160a01b0316836001600160a01b031603610d495760019150610d5b565b80610d53816138c9565b915050610d06565b508015610d6a57505050610da6565b818a8981518110610d7d57610d7d6138e3565b6001600160a01b039092166020928302919091019091015287610d9f816138c9565b9850505050505b80610db0816138c9565b915050610cb7565b50508080610dc5906138c9565b915050610c94565b505082525090565b7f8a22373512790c48b83a1fe2efdd2888d4a917bcdc24d0adf63e60f671680460546001600160a01b03163314610e38576040517f3058081000000000000000000000000000000000000000000000000000000000815260040160405180910390fd5b6107ff8282612466565b7f8a22373512790c48b83a1fe2efdd2888d4a917bcdc24d0adf63e60f671680460546001600160a01b03163314610ea5576040517f3058081000000000000000000000000000000000000000000000000000000000815260040160405180910390fd5b815160005b81811015610edd57610ed5848281518110610ec757610ec76138e3565b602002602001015184612466565b600101610eaa565b50505050565b610eeb6124f5565b6001600160a01b0316336001600160a01b031614610f35576040517fefd1052d00000000000000000000000000000000000000000000000000000000815260040160405180910390fd5b610f3d61251d565b565b7f177481ac65e4292921c69f62d1cc7f57541261e5d61c8175cf4e36a01c9bfc94546060907f177481ac65e4292921c69f62d1cc7f57541261e5d61c8175cf4e36a01c9bfc939061ffff1667ffffffffffffffff811115610fa257610fa26133ca565b604051908082528060200260200182016040528015610fe857816020015b604080518082019091526000815260606020820152815260200190600190039081610fc05790505b50600182015490925060009061ffff1667ffffffffffffffff811115611010576110106133ca565b604051908082528060200260200182016040528015611039578160200160208202803683370190505b50905060008060005b600185015461ffff1682101561137c576000818152600286016020526040812054905b60088110156113675783611078816138c9565b600189015490955061ffff168511905061136757600581901b82901b6001600160e01b0319811660009081526020899052604081205460601c90805b888110156111fb57826001600160a01b03168c82815181106110d8576110d86138e3565b6020026020010151600001516001600160a01b0316036111e957838c8281518110611105576111056138e3565b6020026020010151602001518b8381518110611123576111236138e3565b602002602001015160ff168151811061113e5761113e6138e3565b60200260200101907bffffffffffffffffffffffffffffffffffffffffffffffffffffffff191690817bffffffffffffffffffffffffffffffffffffffffffffffffffffffff19168152505060ff8a828151811061119e5761119e6138e3565b602002602001015160ff16106111b357600080fd5b8981815181106111c5576111c56138e3565b6020026020010180518091906111da9061390f565b60ff16905250600191506111fb565b806111f3816138c9565b9150506110b4565b50801561120a57505050611355565b818b898151811061121d5761121d6138e3565b60209081029190910101516001600160a01b03909116905260018a015461ffff1667ffffffffffffffff811115611256576112566133ca565b60405190808252806020026020018201604052801561127f578160200160208202803683370190505b508b8981518110611292576112926138e3565b602002602001015160200181905250828b89815181106112b4576112b46138e3565b6020026020010151602001516000815181106112d2576112d26138e3565b60200260200101907bffffffffffffffffffffffffffffffffffffffffffffffffffffffff191690817bffffffffffffffffffffffffffffffffffffffffffffffffffffffff1916815250506001898981518110611332576113326138e3565b60ff909216602092830291909101909101528761134e816138c9565b9850505050505b8061135f816138c9565b915050611065565b50508080611374906138c9565b915050611042565b5060005b828110156113e357600084828151811061139c5761139c6138e3565b602002602001015160ff16905060008783815181106113bd576113bd6138e3565b6020026020010151602001519050818152505080806113db906138c9565b915050611380565b508185525050505090565b60006105f06124f5565b60006105f06119d8565b61140a6119d8565b6001600160a01b0316336001600160a01b03161461143b57604051632f7a8ee160e01b815260040160405180910390fd5b7f177481ac65e4292921c69f62d1cc7f57541261e5d61c8175cf4e36a01c9bfc96805473ffffffffffffffffffffffffffffffffffffffff19166001600160a01b03831617905550565b50565b6107ff8282612564565b61149d838383612672565b505050565b6001600160a01b0380841660009081527f8c151f2b073b889ff2e1725375750783c091724f29d93246786f4cca8f047dbf60209081526040808320868452825280832093851683529290529081205460ff165b949350505050565b606061150b60008484612769565b9392505050565b7f177481ac65e4292921c69f62d1cc7f57541261e5d61c8175cf4e36a01c9bfc94546060907f177481ac65e4292921c69f62d1cc7f57541261e5d61c8175cf4e36a01c9bfc939061ffff1667ffffffffffffffff811115611575576115756133ca565b60405190808252806020026020018201604052801561159e578160200160208202803683370190505b50915060008060005b600184015461ffff16821015611687576000818152600285016020526040812054905b600881101561167257836115dd816138c9565b600188015490955061ffff168511905061167257600581901b82901b6001600160e01b0319811660009081526020889052604090205460601c6001600160a01b038a160361165f5780888781518110611638576116386138e3565b6001600160e01b0319909216602092830291909101909101528561165b816138c9565b9650505b508061166a816138c9565b9150506115ca565b5050808061167f906138c9565b9150506115a7565b5050825250919050565b600061063482612942565b6001600160e01b0319811660009081527f177481ac65e4292921c69f62d1cc7f57541261e5d61c8175cf4e36a01c9bfc93602081905260409091205460601c90808261178a577f177481ac65e4292921c69f62d1cc7f57541261e5d61c8175cf4e36a01c9bfc96546001600160a01b03169250821561178a5760405163dc9cc64560e01b81526001600160e01b0319851660048201526001600160a01b0384169063dc9cc64590602401602060405180830381865afa158015611763573d6000803e3d6000fd5b505050506040513d601f19601f82011682018060405250810190611787919061392e565b92505b5050919050565b60606114f5848484612769565b6001600160a01b0380831660009081527f8c151f2b073b889ff2e1725375750783c091724f29d93246786f4cca8f047dbe6020908152604080832093851683529290529081205460ff1661150b565b6117f56119d8565b6001600160a01b0316336001600160a01b03161461182657604051632f7a8ee160e01b815260040160405180910390fd5b611485816129ba565b6001600160e01b0319811660009081527ffc606c433378e3a7e0a6a531deac289b66caa1b4aa8554fd4ab2c6f1570f92d8602052604090205460ff16806119325760006118a37f177481ac65e4292921c69f62d1cc7f57541261e5d61c8175cf4e36a01c9bfc96546001600160a01b031690565b90506001600160a01b0381161561193057818061192d57506040516301ffc9a760e01b81526001600160e01b0319841660048201526001600160a01b038216906301ffc9a790602401602060405180830381865afa158015611909573d6000803e3d6000fd5b505050506040513d601f19601f8201168201806040525081019061192d919061394b565b91505b505b919050565b6000763d602d80600a3d3981f3363d3d373d3d3d363d730000008260601b60e81c176000526e5af43d82803e903d91602b57fd5bf38260781b17602052603760096000f090506001600160a01b0381166119325760405162461bcd60e51b815260206004820152601660248201527f455243313136373a20637265617465206661696c65640000000000000000000060448201526064015b60405180910390fd5b60007f8a22373512790c48b83a1fe2efdd2888d4a917bcdc24d0adf63e60f6716804605b546001600160a01b0316919050565b7f177481ac65e4292921c69f62d1cc7f57541261e5d61c8175cf4e36a01c9bfc94547f177481ac65e4292921c69f62d1cc7f57541261e5d61c8175cf4e36a01c9bfc939061ffff811690819060009060071615611a7a5750600381901c60009081526002840160205260409020545b60005b8751811015611b78576000888281518110611a9a57611a9a6138e3565b60200260200101519050600081602001519050816040015151600003611aec576040517feb6c3aeb00000000000000000000000000000000000000000000000000000000815260040160405180910390fd5b6000816002811115611b0057611b006138f9565b03611b1b57611b1187868685612a08565b9095509350611b6e565b6001816002811115611b2f57611b2f6138f9565b03611b4357611b3e8783612b65565b611b6e565b6002816002811115611b5757611b576138f9565b03611b6e57611b6887868685612cfb565b90955093505b5050600101611a7d565b50828214611bb1576001840180547fffffffffffffffffffffffffffffffffffffffffffffffffffffffffffff00001661ffff84161790555b6007821615611bd357600382901c600090815260028501602052604090208190555b7f8faa70878671ccd212d20771b795c50af8fd3ff6cf27f4bde57e5d4de0aeb673878787604051611c0693929190613968565b60405180910390a1611c188686612f83565b50505050505050565b60408051336024820152604480820184905282518083039091018152606490910182526020810180517bffffffffffffffffffffffffffffffffffffffffffffffffffffffff167f25f36704000000000000000000000000000000000000000000000000000000001790529051600091829182913091611ca19190613a4f565b600060405180830381855afa9150503d8060008114611cdc576040519150601f19603f3d011682016040523d82523d6000602084013e611ce1565b606091505b509150915081611cf5575060009392505050565b80806020019051810190611787919061394b565b611d1161307c565b6001600160a01b0316632d4d6ccf826040518263ffffffff1660e01b8152600401611d3e91815260200190565b600060405180830381600087803b158015611d5857600080fd5b505af1158015611d6c573d6000803e3d6000fd5b50505050807fc6621ccb8f3f5a04bb6502154b2caf6adf5983fe76dfef1cfc9c42e3579db444611d9b83612942565b60405167ffffffffffffffff909116815260200160405180910390a250565b7fb40d49f5a32ade8065d600aab18d96945a09d7fbb3e248099e22f7c4c10e01898054819060ff1615611e2f5760405162461bcd60e51b815260206004820152600b60248201527f496e697469616c697a656400000000000000000000000000000000000000000060448201526064016119cf565b6001600160a01b0383166123455760408051600d8082526101c08201909252600091602082016101a08036833701905050905060007f2c408059000000000000000000000000000000000000000000000000000000008282611e90816138c9565b935081518110611ea257611ea26138e3565b6001600160e01b0319909216602092830291909101909101527f91423765000000000000000000000000000000000000000000000000000000008282611ee7816138c9565b935081518110611ef957611ef96138e3565b6001600160e01b03199092166020928302919091019091015263dc9cc64560e01b8282611f25816138c9565b935081518110611f3757611f376138e3565b6001600160e01b0319909216602092830291909101909101527f1f931c1c000000000000000000000000000000000000000000000000000000008282611f7c816138c9565b935081518110611f8e57611f8e6138e3565b6001600160e01b0319909216602092830291909101909101527f7a0ed627000000000000000000000000000000000000000000000000000000008282611fd3816138c9565b935081518110611fe557611fe56138e3565b6001600160e01b0319909216602092830291909101909101527fadfca15e00000000000000000000000000000000000000000000000000000000828261202a816138c9565b93508151811061203c5761203c6138e3565b6001600160e01b0319909216602092830291909101909101527f52ef6b2c000000000000000000000000000000000000000000000000000000008282612081816138c9565b935081518110612093576120936138e3565b6001600160e01b0319909216602092830291909101909101527fcdffacc60000000000000000000000000000000000000000000000000000000082826120d8816138c9565b9350815181106120ea576120ea6138e3565b6001600160e01b0319909216602092830291909101909101526301ffc9a760e01b8282612116816138c9565b935081518110612128576121286138e3565b6001600160e01b0319909216602092830291909101909101527f8da5cb5b00000000000000000000000000000000000000000000000000000000828261216d816138c9565b93508151811061217f5761217f6138e3565b6001600160e01b0319909216602092830291909101909101527f8ab5150a0000000000000000000000000000000000000000000000000000000082826121c4816138c9565b9350815181106121d6576121d66138e3565b6001600160e01b0319909216602092830291909101909101527ff2fde38b00000000000000000000000000000000000000000000000000000000828261221b816138c9565b93508151811061222d5761222d6138e3565b6001600160e01b0319909216602092830291909101909101527f79ba5097000000000000000000000000000000000000000000000000000000008282612272816138c9565b935081518110612284576122846138e3565b6001600160e01b03199290921660209283029190910190910152604080516001808252818301909252600091816020015b604080516060808201835260008083526020830152918101919091528152602001906001900390816122b557905050604080516060810190915230815290915060208101600081526020018481525081600081518110612317576123176138e3565b602002602001018190525061233d81600060405180602001604052806000815250611a0b565b50505061238d565b7f177481ac65e4292921c69f62d1cc7f57541261e5d61c8175cf4e36a01c9bfc96805473ffffffffffffffffffffffffffffffffffffffff19166001600160a01b0385161790555b61239f63dc9cc64560e01b6001612466565b6123ca7fbd02b73c000000000000000000000000000000000000000000000000000000006001612466565b6123f57f1f931c1c000000000000000000000000000000000000000000000000000000006001612466565b6124207f48e2b093000000000000000000000000000000000000000000000000000000006001612466565b6124326301ffc9a760e01b6001612466565b61245d7f7f5828d0000000000000000000000000000000000000000000000000000000006001612466565b610edd846130e7565b6001600160e01b031980831690036124aa576040517fb0a19dd500000000000000000000000000000000000000000000000000000000815260040160405180910390fd5b6001600160e01b03199190911660009081527ffc606c433378e3a7e0a6a531deac289b66caa1b4aa8554fd4ab2c6f1570f92d860205260409020805460ff1916911515919091179055565b60007f24aa1f7b31fd188a8d3ecfb06bc55c806040e59b03bd4396283442fce66178906119fc565b612526336130e7565b7f24aa1f7b31fd188a8d3ecfb06bc55c806040e59b03bd4396283442fce6617890805473ffffffffffffffffffffffffffffffffffffffff19169055565b6001600160a01b03821633036125e25760405162461bcd60e51b815260206004820152602960248201527f455243313135353a2073657474696e6720617070726f76616c2073746174757360448201527f20666f722073656c66000000000000000000000000000000000000000000000060648201526084016119cf565b60007f8c151f2b073b889ff2e1725375750783c091724f29d93246786f4cca8f047dbe336000818152602083815260408083206001600160a01b03891680855290835292819020805460ff1916881515908117909155905190815293945090927f17307eab39ab6107e8899845ad3d59bd9653f200f220920489ca2b5937696c31910160405180910390a3505050565b6001600160a01b03821633036126ca5760405162461bcd60e51b815260206004820181905260248201527f53657474696e672064656c65676174652073746174757320666f722073656c6660448201526064016119cf565b60007f8c151f2b073b889ff2e1725375750783c091724f29d93246786f4cca8f047dbe336000818152600183016020908152604080832089845282528083206001600160a01b03891680855290835292819020805460ff19168815159081179091559051938452939450909187917ff0ddb3b04746704017f9aa8bd728fcc2c1d11675041205350018915f5e4750a0910160405180910390a450505050565b60608167ffffffffffffffff811115612784576127846133ca565b6040519080825280602002602001820160405280156127b757816020015b60608152602001906001900390816127a25790505b50905060005b8281101561293a5784156128825760008484838181106127df576127df6138e3565b90506020028101906127f19190613a6b565b61280091602491600491613ad0565b61280991613afa565b90508581146128805760405162461bcd60e51b815260206004820152603460248201527f6d756c746963616c6c3a20416c6c207265636f726473206d757374206861766560448201527f2061206d61746368696e67206e616d656861736800000000000000000000000060648201526084016119cf565b505b60008030868685818110612898576128986138e3565b90506020028101906128aa9190613a6b565b6040516128b8929190613b18565b600060405180830381855af49150503d80600081146128f3576040519150601f19603f3d011682016040523d82523d6000602084013e6128f8565b606091505b50915091508161290757600080fd5b8084848151811061291a5761291a6138e3565b602002602001018190525050508080612932906138c9565b9150506127bd565b509392505050565b600061294c61307c565b6001600160a01b031663eff94ac7836040518263ffffffff1660e01b815260040161297991815260200190565b602060405180830381865afa158015612996573d6000803e3d6000fd5b505050506040513d601f19601f820116820180604052508101906106349190613b28565b611485817f24aa1f7b31fd188a8d3ecfb06bc55c806040e59b03bd4396283442fce6617890805473ffffffffffffffffffffffffffffffffffffffff19166001600160a01b03831617905550565b805160009081906001600160a01b03163014801590612a30575082516001600160a01b03163b155b15612a4e57604051633ddc5cab60e21b815260040160405180910390fd5b60005b836040015151811015612b5857600084604001518281518110612a7657612a766138e3565b6020908102919091018101516001600160e01b031981166000908152918a9052604090912054909150606081901c15612adb576040517f92474ee200000000000000000000000000000000000000000000000000000000815260040160405180910390fd5b85516001600160e01b0319838116600081815260208d90526040902060609390931b6bffffffffffffffffffffffff19168b1790925560058a901b60e090811692831c91831c19999099161797819003612b4957600389901c600090815260028b0160205260408120989098555b50505060019586019501612a51565b5093959294509192505050565b80516001600160a01b03163b612b8e57604051633ddc5cab60e21b815260040160405180910390fd5b60005b81604001515181101561149d57600082604001518281518110612bb657612bb66138e3565b6020908102919091018101516001600160e01b03198116600090815291869052604090912054909150606081901c80612c1b576040517f6fc4b52e00000000000000000000000000000000000000000000000000000000815260040160405180910390fd5b306001600160a01b03821603612c5d576040517fe983573100000000000000000000000000000000000000000000000000000000815260040160405180910390fd5b84600001516001600160a01b0316816001600160a01b031603612cac576040517f617557e600000000000000000000000000000000000000000000000000000000815260040160405180910390fd5b5083516001600160e01b031992909216600090815260208690526040902060609290921b6bffffffffffffffffffffffff19166bffffffffffffffffffffffff91909116179055600101612b91565b805160009081906001600160a01b031615612d42576040517feacd242400000000000000000000000000000000000000000000000000000000815260040160405180910390fd5b600385901c6007861660005b856040015151811015612f6f57600086604001518281518110612d7357612d736138e3565b6020908102919091018101516001600160e01b031981166000908152918c9052604090912054909150606081901c612dd7576040517f6fc4b52e00000000000000000000000000000000000000000000000000000000815260040160405180910390fd5b30606082901c03612e14576040517fe983573100000000000000000000000000000000000000000000000000000000815260040160405180910390fd5b6000899003612e4057600019909401600081815260028c01602052604090205498509360079350612e48565b600019909301925b600584901b89901b6000806001600160e01b031980841690861614612ea4576001600160e01b03198316600090815260208f90526040902080546bffffffffffffffffffffffff19166bffffffffffffffffffffffff86161790555b50506001600160e01b03198316600090815260208d90526040812055611fff600383901c1660e0600584901b16878214612f0757600082815260028f016020526040902080546001600160e01b031980841c19909116908516831c179055612f40565b80837bffffffffffffffffffffffffffffffffffffffffffffffffffffffff1916901c816001600160e01b031960001b901c198d16179b505b86600003612f5e57600088815260028f01602052604081208190559b505b505060019093019250612d4e915050565b5060039190911b1796939550929350505050565b8051156001600160a01b0383161514612fc8576040517f26df4ccd00000000000000000000000000000000000000000000000000000000815260040160405180910390fd5b6001600160a01b038216156107ff576001600160a01b038216301461300f576001600160a01b0382163b61300f57604051633ddc5cab60e21b815260040160405180910390fd5b6000826001600160a01b0316826040516130299190613a4f565b600060405180830381855af49150503d8060008114613064576040519150601f19603f3d011682016040523d82523d6000602084013e613069565b606091505b505090508061149d573d6000803e3d6000fd5b600061308661316e565b6001600160a01b0316635ea1d46a6040518163ffffffff1660e01b8152600401602060405180830381865afa1580156130c3573d6000803e3d6000fd5b505050506040513d601f19601f820116820180604052508101906105f0919061392e565b7f8a22373512790c48b83a1fe2efdd2888d4a917bcdc24d0adf63e60f67168046080546040516001600160a01b038481169216907f8be0079c531659141344cd1fd0a4f28419497f9722a3daafe3b4186f6b6457e090600090a3805473ffffffffffffffffffffffffffffffffffffffff19166001600160a01b0392909216919091179055565b6000306001600160a01b0316637b1039996040518163ffffffff1660e01b8152600401602060405180830381865afa1580156130c3573d6000803e3d6000fd5b80356001600160e01b03198116811461193257600080fd5b6000602082840312156131d857600080fd5b61150b826131ae565b60008083601f8401126131f357600080fd5b50813567ffffffffffffffff81111561320b57600080fd5b6020830191508360208260051b850101111561322657600080fd5b9250929050565b6001600160a01b038116811461148557600080fd5b60008060008060006060868803121561325a57600080fd5b853567ffffffffffffffff8082111561327257600080fd5b61327e89838a016131e1565b9097509550602088013591506132938261322d565b909350604087013590808211156132a957600080fd5b818801915088601f8301126132bd57600080fd5b8135818111156132cc57600080fd5b8960208285010111156132de57600080fd5b9699959850939650602001949392505050565b60006020828403121561330357600080fd5b5035919050565b6000806040838503121561331d57600080fd5b82356133288161322d565b915060208301356133388161322d565b809150509250929050565b6020808252825182820181905260009190848201906040850190845b818110156133845783516001600160a01b03168352928401929184019160010161335f565b50909695505050505050565b801515811461148557600080fd5b600080604083850312156133b157600080fd5b6133ba836131ae565b9150602083013561333881613390565b634e487b7160e01b600052604160045260246000fd5b6040516060810167ffffffffffffffff81118282101715613403576134036133ca565b60405290565b604051601f8201601f1916810167ffffffffffffffff81118282101715613432576134326133ca565b604052919050565b600067ffffffffffffffff821115613454576134546133ca565b5060051b60200190565b600082601f83011261346f57600080fd5b8135602061348461347f8361343a565b613409565b82815260059290921b840181019181810190868411156134a357600080fd5b8286015b848110156134c5576134b8816131ae565b83529183019183016134a7565b509695505050505050565b600080604083850312156134e357600080fd5b823567ffffffffffffffff8111156134fa57600080fd5b6135068582860161345e565b925050602083013561333881613390565b600081518084526020808501945080840160005b838110156135515781516001600160e01b0319168752958201959082019060010161352b565b509495945050505050565b60006020808301818452808551808352604092508286019150828160051b87010184880160005b838110156135cb57888303603f19018552815180516001600160a01b031684528701518784018790526135b887850182613517565b9588019593505090860190600101613583565b509098975050505050505050565b6000602082840312156135eb57600080fd5b813561150b8161322d565b6000806040838503121561360957600080fd5b82356133ba8161322d565b60008060006060848603121561362957600080fd5b83359250602084013561363b8161322d565b9150604084013561364b81613390565b809150509250925092565b60008060006060848603121561366b57600080fd5b83356136768161322d565b925060208401359150604084013561364b8161322d565b600080602083850312156136a057600080fd5b823567ffffffffffffffff8111156136b757600080fd5b6136c3858286016131e1565b90969095509350505050565b60005b838110156136ea5781810151838201526020016136d2565b50506000910152565b6000815180845261370b8160208601602086016136cf565b601f01601f19169290920160200192915050565b6000602080830181845280855180835260408601915060408160051b870101925083870160005b8281101561377457603f198886030184526137628583516136f3565b94509285019290850190600101613746565b5092979650505050505050565b60208152600061150b6020830184613517565b6000806000604084860312156137a957600080fd5b83359250602084013567ffffffffffffffff8111156137c757600080fd5b6137d3868287016131e1565b9497909650939450505050565b60006137ee61347f8461343a565b80848252602080830192508560051b85013681111561380c57600080fd5b855b818110156138a757803567ffffffffffffffff8082111561382f5760008081fd5b8189019150606082360312156138455760008081fd5b61384d6133e0565b82356138588161322d565b8152828601356003811061386c5760008081fd5b81870152604083810135838111156138845760008081fd5b6138903682870161345e565b91830191909152508752505093820193820161380e565b50919695505050505050565b634e487b7160e01b600052601160045260246000fd5b600060001982036138dc576138dc6138b3565b5060010190565b634e487b7160e01b600052603260045260246000fd5b634e487b7160e01b600052602160045260246000fd5b600060ff821660ff8103613925576139256138b3565b60010192915050565b60006020828403121561394057600080fd5b815161150b8161322d565b60006020828403121561395d57600080fd5b815161150b81613390565b6000606080830181845280875180835260808601915060808160051b87010192506020808a016000805b84811015613a1f577fffffffffffffffffffffffffffffffffffffffffffffffffffffffffffffff808a880301865282516001600160a01b03815116885284810151600381106139f057634e487b7160e01b84526021600452602484fd5b88860152604090810151908801899052613a0c89890182613517565b9750509483019491830191600101613992565b5050506001600160a01b0389169087015250508381036040850152613a4481866136f3565b979650505050505050565b60008251613a618184602087016136cf565b9190910192915050565b60008083357fffffffffffffffffffffffffffffffffffffffffffffffffffffffffffffffe1843603018112613aa057600080fd5b83018035915067ffffffffffffffff821115613abb57600080fd5b60200191503681900382131561322657600080fd5b60008085851115613ae057600080fd5b83861115613aed57600080fd5b5050820193919092039150565b8035602083101561063457600019602084900360031b1b1692915050565b8183823760009101908152919050565b600060208284031215613b3a57600080fd5b815167ffffffffffffffff8116811461150b57600080fdfea2646970667358221220650a57ecc473fe60100d210ee0d8cb63a0260db6f4795c260cb2f2b69c5548b064736f6c63430008130033",
  "devdoc": {
    "kind": "dev",
    "methods": {
      "approve(bytes32,address,bool)": {
        "details": "Approve a delegate to be able to updated records on a node."
      },
      "clearRecords(bytes32)": {
        "params": {
          "node": "The node to update."
        }
      },
      "diamondCut((address,uint8,bytes4[])[],address,bytes)": {
        "params": {
          "data": "optional initialization function call data",
          "facetCuts": "array of structured Diamond facet update data",
          "target": "optional target of initialization delegatecall"
        }
      },
      "facetAddress(bytes4)": {
        "params": {
          "selector": "function selector to query"
        },
        "returns": {
          "facet": "facet address (zero address if not found)"
        }
      },
      "facetAddresses()": {
        "returns": {
          "addresses": "array of facet addresses"
        }
      },
      "facetFunctionSelectors(address)": {
        "params": {
          "facet": "address of facet to query"
        },
        "returns": {
          "selectors": "array of function selectors"
        }
      },
      "facets()": {
        "returns": {
          "diamondFacets": "array of structured facet data"
        }
      },
      "getFallbackAddress()": {
        "returns": {
          "fallbackAddress": "address of fallback implementation"
        }
      },
      "isApprovedFor(address,bytes32,address)": {
        "details": "Check to see if the delegate has been approved by the owner for the node."
      },
      "isApprovedForAll(address,address)": {
        "details": "See {IERC1155-isApprovedForAll}."
      },
      "owner()": {
        "returns": {
          "_0": "contract owner"
        }
      },
      "setApprovalForAll(address,bool)": {
        "details": "See {IERC1155-setApprovalForAll}."
      },
      "setFallbackAddress(address)": {
        "params": {
          "fallbackAddress": "address of fallback implementation"
        }
      },
      "transferOwnership(address)": {
        "params": {
          "account": "address of new owner"
        }
      }
    },
    "version": 1
  },
  "userdoc": {
    "kind": "user",
    "methods": {
      "acceptOwnership()": {
        "notice": "accept transfer of contract ownership"
      },
      "clearRecords(bytes32)": {
        "notice": "Increments the record version associated with an ENS node. May only be called by the owner of that node in the ENS registry."
      },
      "clone()": {
        "notice": "Clone DiamondResolver to customize your own resolver"
      },
      "diamondCut((address,uint8,bytes4[])[],address,bytes)": {
        "notice": "update diamond facets and optionally execute arbitrary initialization function"
      },
      "facetAddress(bytes4)": {
        "notice": "get the address of the facet associated with given selector"
      },
      "facetAddresses()": {
        "notice": "get addresses of all facets used by diamond"
      },
      "facetFunctionSelectors(address)": {
        "notice": "get all selectors for given facet address"
      },
      "facets()": {
        "notice": "get all facets and their selectors"
      },
      "getFallbackAddress()": {
        "notice": "query the address of the fallback implementation"
      },
      "nomineeOwner()": {
        "notice": "get the nominated owner who has permission to call acceptOwnership"
      },
      "owner()": {
        "notice": "get the ERC173 contract owner"
      },
      "setFallbackAddress(address)": {
        "notice": "set the address of the fallback implementation"
      },
      "transferOwnership(address)": {
        "notice": "transfer contract ownership to new account"
      }
    },
    "version": 1
  },
  "storageLayout": {
    "storage": [],
    "types": null
  }
}