{
  "address": "0x87d6e6793e93C5CFa1BbBA7EDfA7d68D7BC668d5",
  "abi": [
    {
      "inputs": [],
      "name": "NotDiamondOwner",
      "type": "error"
    },
    {
      "inputs": [],
      "name": "Unauthorised",
      "type": "error"
    },
    {
      "anonymous": false,
      "inputs": [
        {
          "indexed": true,
          "internalType": "address",
          "name": "owner",
          "type": "address"
        },
        {
          "indexed": true,
          "internalType": "address",
          "name": "operator",
          "type": "address"
        },
        {
          "indexed": false,
          "internalType": "bool",
          "name": "approved",
          "type": "bool"
        }
      ],
      "name": "ApprovalForAll",
      "type": "event"
    },
    {
      "anonymous": false,
      "inputs": [
        {
          "indexed": false,
          "internalType": "address",
          "name": "owner",
          "type": "address"
        },
        {
          "indexed": true,
          "internalType": "bytes32",
          "name": "node",
          "type": "bytes32"
        },
        {
          "indexed": true,
          "internalType": "address",
          "name": "delegate",
          "type": "address"
        },
        {
          "indexed": true,
          "internalType": "bool",
          "name": "approved",
          "type": "bool"
        }
      ],
      "name": "Approved",
      "type": "event"
    },
    {
      "anonymous": false,
      "inputs": [
        {
          "indexed": true,
          "internalType": "address",
          "name": "operator",
          "type": "address"
        },
        {
          "indexed": false,
          "internalType": "bool",
          "name": "approved",
          "type": "bool"
        }
      ],
      "name": "SetWhitelisted",
      "type": "event"
    },
    {
      "anonymous": false,
      "inputs": [
        {
          "indexed": true,
          "internalType": "bytes32",
          "name": "node",
          "type": "bytes32"
        },
        {
          "indexed": false,
          "internalType": "uint64",
          "name": "newVersion",
          "type": "uint64"
        }
      ],
      "name": "VersionChanged",
      "type": "event"
    },
    {
      "inputs": [
        {
          "internalType": "address",
          "name": "sender",
          "type": "address"
        },
        {
          "internalType": "bytes32",
          "name": "node",
          "type": "bytes32"
        }
      ],
      "name": "isAuthorised",
      "outputs": [
        {
          "internalType": "bool",
          "name": "",
          "type": "bool"
        }
      ],
      "stateMutability": "view",
      "type": "function"
    },
    {
      "inputs": [
        {
          "internalType": "address",
          "name": "operator",
          "type": "address"
        },
        {
          "internalType": "bool",
          "name": "approved",
          "type": "bool"
        }
      ],
      "name": "setWhitelisted",
      "outputs": [],
      "stateMutability": "nonpayable",
      "type": "function"
    }
  ],
  "transactionHash": "0x765f9900b1286f0b9e6974cc26979fa762b5f476048f93902cec7a3c536e1e47",
  "args": [],
  "numDeployments": 1,
  "solcInputHash": "22d6988ecad493e5a6293e26d37c8db9",
  "bytecode": "0x608060405234801561001057600080fd5b506104c2806100206000396000f3fe608060405234801561001057600080fd5b50600436106100365760003560e01c806325f367041461003b5780639281aa0b14610062575b600080fd5b61004e610049366004610405565b610077565b604051901515815260200160405180910390f35b610075610070366004610431565b6100d9565b005b600061008383836101fa565b806100d2575073ffffffffffffffffffffffffffffffffffffffff831660009081527f378200da64021ea95e57f25539bdb5dedb78afa36a3f553f54a02f28ced4961a602052604090205460ff165b9392505050565b7f8a22373512790c48b83a1fe2efdd2888d4a917bcdc24d0adf63e60f6716804605473ffffffffffffffffffffffffffffffffffffffff163314610149576040517f3058081000000000000000000000000000000000000000000000000000000000815260040160405180910390fd5b60007f378200da64021ea95e57f25539bdb5dedb78afa36a3f553f54a02f28ced4961a73ffffffffffffffffffffffffffffffffffffffff84166000818152602083815260409182902080547fffffffffffffffffffffffffffffffffffffffffffffffffffffffffffffff0016871515908117909155915191825292935090917f26742d25b283cf51a0e3c4183d934871ed96d1bd33cf40706f87a94f29f686ac910160405180910390a2505050565b6000803073ffffffffffffffffffffffffffffffffffffffff16637b1039996040518163ffffffff1660e01b8152600401602060405180830381865afa158015610248573d6000803e3d6000fd5b505050506040513d601f19601f8201168201806040525081019061026c919061046f565b73ffffffffffffffffffffffffffffffffffffffff16637dd56411846040518263ffffffff1660e01b81526004016102a691815260200190565b602060405180830381865afa1580156102c3573d6000803e3d6000fd5b505050506040513d601f19601f820116820180604052508101906102e7919061046f565b90508373ffffffffffffffffffffffffffffffffffffffff168173ffffffffffffffffffffffffffffffffffffffff161480610374575073ffffffffffffffffffffffffffffffffffffffff80821660009081527f8c151f2b073b889ff2e1725375750783c091724f29d93246786f4cca8f047dbe602090815260408083209388168352929052205460ff165b806103d8575073ffffffffffffffffffffffffffffffffffffffff80821660009081527f8c151f2b073b889ff2e1725375750783c091724f29d93246786f4cca8f047dbf6020908152604080832087845282528083209388168352929052205460ff165b949350505050565b73ffffffffffffffffffffffffffffffffffffffff8116811461040257600080fd5b50565b6000806040838503121561041857600080fd5b8235610423816103e0565b946020939093013593505050565b6000806040838503121561044457600080fd5b823561044f816103e0565b91506020830135801515811461046457600080fd5b809150509250929050565b60006020828403121561048157600080fd5b81516100d2816103e056fea26469706673582212203c809c28c5b0ce01cf9d28d888cb01ca5919b0ec921b35f66eff0e10385caf1264736f6c63430008130033",
  "devdoc": {
    "kind": "dev",
    "methods": {},
    "version": 1
  },
  "userdoc": {
    "kind": "user",
    "methods": {},
    "version": 1
  },
  "storageLayout": {
    "storage": [],
    "types": null
  }
}