{
  "address": "0x300B7B7aeb46DA9F3009f4AC6d9CAED713035c6d",
  "abi": [
    {
      "inputs": [
        {
          "internalType": "address",
          "name": "_owner",
          "type": "address"
        }
      ],
      "stateMutability": "nonpayable",
      "type": "constructor"
    },
    {
      "inputs": [],
      "name": "InvalidOperatorSignature",
      "type": "error"
    },
    {
      "anonymous": false,
      "inputs": [
        {
          "indexed": true,
          "internalType": "address",
          "name": "controller",
          "type": "address"
        },
        {
          "indexed": false,
          "internalType": "bool",
          "name": "enabled",
          "type": "bool"
        }
      ],
      "name": "ControllerChanged",
      "type": "event"
    },
    {
      "anonymous": false,
      "inputs": [
        {
          "indexed": true,
          "internalType": "address",
          "name": "previousOwner",
          "type": "address"
        },
        {
          "indexed": true,
          "internalType": "address",
          "name": "newOwner",
          "type": "address"
        }
      ],
      "name": "OwnershipTransferred",
      "type": "event"
    },
    {
      "anonymous": false,
      "inputs": [
        {
          "indexed": true,
          "internalType": "address",
          "name": "target",
          "type": "address"
        },
        {
          "indexed": false,
          "internalType": "bytes",
          "name": "data",
          "type": "bytes"
        },
        {
          "indexed": false,
          "internalType": "bytes",
          "name": "result",
          "type": "bytes"
        }
      ],
      "name": "RootExecution",
      "type": "event"
    },
    {
      "anonymous": false,
      "inputs": [
        {
          "indexed": true,
          "internalType": "bytes32",
          "name": "label",
          "type": "bytes32"
        }
      ],
      "name": "TLDLocked",
      "type": "event"
    },
    {
      "inputs": [
        {
          "internalType": "address",
          "name": "",
          "type": "address"
        }
      ],
      "name": "controllers",
      "outputs": [
        {
          "internalType": "bool",
          "name": "",
          "type": "bool"
        }
      ],
      "stateMutability": "view",
      "type": "function"
    },
    {
      "inputs": [],
      "name": "currentNonce",
      "outputs": [
        {
          "internalType": "uint256",
          "name": "",
          "type": "uint256"
        }
      ],
      "stateMutability": "view",
      "type": "function"
    },
    {
      "inputs": [
        {
          "internalType": "address",
          "name": "target",
          "type": "address"
        },
        {
          "internalType": "bytes",
          "name": "data",
          "type": "bytes"
        },
        {
          "internalType": "bytes",
          "name": "signature",
          "type": "bytes"
        }
      ],
      "name": "execute",
      "outputs": [
        {
          "internalType": "bytes",
          "name": "",
          "type": "bytes"
        }
      ],
      "stateMutability": "nonpayable",
      "type": "function"
    },
    {
      "inputs": [
        {
          "internalType": "address",
          "name": "addr",
          "type": "address"
        }
      ],
      "name": "isOwner",
      "outputs": [
        {
          "internalType": "bool",
          "name": "",
          "type": "bool"
        }
      ],
      "stateMutability": "view",
      "type": "function"
    },
    {
      "inputs": [
        {
          "internalType": "bytes32",
          "name": "label",
          "type": "bytes32"
        },
        {
          "internalType": "bytes",
          "name": "signature",
          "type": "bytes"
        }
      ],
      "name": "lock",
      "outputs": [],
      "stateMutability": "nonpayable",
      "type": "function"
    },
    {
      "inputs": [
        {
          "internalType": "bytes32",
          "name": "",
          "type": "bytes32"
        }
      ],
      "name": "locked",
      "outputs": [
        {
          "internalType": "bool",
          "name": "",
          "type": "bool"
        }
      ],
      "stateMutability": "view",
      "type": "function"
    },
    {
      "inputs": [],
      "name": "owner",
      "outputs": [
        {
          "internalType": "address",
          "name": "",
          "type": "address"
        }
      ],
      "stateMutability": "view",
      "type": "function"
    },
    {
      "inputs": [
        {
          "internalType": "address",
          "name": "controller",
          "type": "address"
        },
        {
          "internalType": "bool",
          "name": "enabled",
          "type": "bool"
        },
        {
          "internalType": "bytes",
          "name": "signature",
          "type": "bytes"
        }
      ],
      "name": "setController",
      "outputs": [],
      "stateMutability": "nonpayable",
      "type": "function"
    },
    {
      "inputs": [
        {
          "internalType": "contract ENS",
          "name": "ens",
          "type": "address"
        },
        {
          "internalType": "bytes32",
          "name": "label",
          "type": "bytes32"
        },
        {
          "internalType": "address",
          "name": "owner",
          "type": "address"
        }
      ],
      "name": "setSubnodeOwner",
      "outputs": [],
      "stateMutability": "nonpayable",
      "type": "function"
    },
    {
      "inputs": [
        {
          "internalType": "bytes4",
          "name": "interfaceID",
          "type": "bytes4"
        }
      ],
      "name": "supportsInterface",
      "outputs": [
        {
          "internalType": "bool",
          "name": "",
          "type": "bool"
        }
      ],
      "stateMutability": "pure",
      "type": "function"
    },
    {
      "inputs": [
        {
          "internalType": "address",
          "name": "newOwner",
          "type": "address"
        },
        {
          "internalType": "bytes",
          "name": "signature",
          "type": "bytes"
        }
      ],
      "name": "transferOwnership",
      "outputs": [],
      "stateMutability": "nonpayable",
      "type": "function"
    }
  ],
  "transactionHash": "0x4e6d4addca491b79dc2e41deed910d57ae45464a4b6af86c3f3be5f3df3ef572",
  "args": [
    "0x00008eE1EF8EC70495e97D5bb60B35d366b8dD71"
  ],
  "numDeployments": 1,
  "solcInputHash": "c81bedfd848a2a4cf70545d5bbd8b0b3",
  "bytecode": "0x608060405234801561001057600080fd5b50604051610f78380380610f7883398101604081905261002f91610054565b600080546001600160a01b0319166001600160a01b0392909216919091179055610084565b60006020828403121561006657600080fd5b81516001600160a01b038116811461007d57600080fd5b9392505050565b610ee5806100936000396000f3fe608060405234801561001057600080fd5b50600436106100c95760003560e01c8063adb610a311610081578063da8c229e1161005b578063da8c229e14610207578063ea3a8fb41461022a578063ea8de7851461023d57600080fd5b8063adb610a3146101ad578063cbe9e764146101c4578063d4fa4534146101e757600080fd5b80634378368b116100b25780634378368b1461015a5780638c90821f1461016f5780638da5cb5b1461018257600080fd5b806301ffc9a7146100ce5780632f54bf6e14610138575b600080fd5b6101236100dc366004610a92565b7fffffffff00000000000000000000000000000000000000000000000000000000167f01ffc9a7000000000000000000000000000000000000000000000000000000001490565b60405190151581526020015b60405180910390f35b610123610146366004610aec565b6000546001600160a01b0390811691161490565b61016d610168366004610bac565b610250565b005b61016d61017d366004610c13565b61033a565b600054610195906001600160a01b031681565b6040516001600160a01b03909116815260200161012f565b6101b660015481565b60405190815260200161012f565b6101236101d2366004610c63565b60036020526000908152604090205460ff1681565b6101fa6101f5366004610c7c565b610415565b60405161012f9190610d38565b610123610215366004610aec565b60026020526000908152604090205460ff1681565b61016d610238366004610d4b565b610544565b61016d61024b366004610d8d565b61069c565b6040516bffffffffffffffffffffffff19606085901b16602082015282151560f81b60348201526102bd907fe0c0d905e3f4f4dacf6f42a9f6c3f0bc567259acd6985c8a5b7709b5a3dcf631906035015b604051602081830303815290604052805190602001208361072b565b6102da57604051632616a48960e11b815260040160405180910390fd5b6001600160a01b038316600081815260026020908152604091829020805460ff191686151590811790915591519182527f4c97694570a07277810af7e5669ffd5f6a2d6b74b6e9a274b8b870fd5114cf87910160405180910390a2505050565b6040516bffffffffffffffffffffffff19606084901b166020820152610384907f1d4a390f291e2e1f29874769efdef47ddad94d76f77ff516fad206a385e8995f906034016102a1565b6103a157604051632616a48960e11b815260040160405180910390fd5b600080546040516001600160a01b03808616939216917f8be0079c531659141344cd1fd0a4f28419497f9722a3daafe3b4186f6b6457e091a350600080547fffffffffffffffffffffffff0000000000000000000000000000000000000000166001600160a01b0392909216919091179055565b606061046a7fc640060cdb34fcc260f41eac7474ee1d7c80b7e3607daff9ac67c7ea2ebb1c44858560405160200161044e929190610dbe565b604051602081830303815290604052805190602001208461072b565b61048757604051632616a48960e11b815260040160405180910390fd5b600080856001600160a01b0316856040516104a29190610df6565b6000604051808303816000865af19150503d80600081146104df576040519150601f19603f3d011682016040523d82523d6000602084013e6104e4565b606091505b5091509150816104f657805160208201fd5b856001600160a01b03167f206493cedf1739ae42faef7de2af2fb74382a4890fce0a92d1a05f885d96b31b8683604051610531929190610e12565b60405180910390a29150505b9392505050565b3360009081526002602052604090205460ff166105e7576040517f08c379a000000000000000000000000000000000000000000000000000000000815260206004820152602860248201527f436f6e74726f6c6c61626c653a2043616c6c6572206973206e6f74206120636f60448201527f6e74726f6c6c6572000000000000000000000000000000000000000000000000606482015260840160405180910390fd5b60008281526003602052604090205460ff161561060357600080fd5b6040517f06ab592300000000000000000000000000000000000000000000000000000000815260006004820152602481018390526001600160a01b0382811660448301528416906306ab5923906064016020604051808303816000875af1158015610672573d6000803e3d6000fd5b505050506040513d601f19601f820116820180604052508101906106969190610e40565b50505050565b6106c77f6168652c307c1e813ca11cfb3a601f1cf3b22452021a5052d8b05f1f1f8a3e92838361072b565b6106e457604051632616a48960e11b815260040160405180910390fd5b60405182907f1764176cfa565853ba1ded547a830a9f9bff95231ef6fd228b3ddd617577756990600090a2506000908152600360205260409020805460ff19166001179055565b60008054600180546107f9926001600160a01b0316917f190000000000000000000000000000000000000000000000000000000000000091859130918a918461077383610e59565b909155506040517fff0000000000000000000000000000000000000000000000000000000000000095861660208201529490931660218501526bffffffffffffffffffffffff1960609290921b91909116602284015260368301526056820152607681018690526096016040516020818303038152906040528051906020012084610801565b949350505050565b60008060006108108585610989565b9092509050600081600481111561082957610829610e80565b1480156108475750856001600160a01b0316826001600160a01b0316145b156108575760019250505061053d565b600080876001600160a01b0316631626ba7e60e01b888860405160240161087f929190610e96565b60408051601f198184030181529181526020820180517bffffffffffffffffffffffffffffffffffffffffffffffffffffffff167fffffffff000000000000000000000000000000000000000000000000000000009094169390931790925290516108ea9190610df6565b600060405180830381855afa9150503d8060008114610925576040519150601f19603f3d011682016040523d82523d6000602084013e61092a565b606091505b509150915081801561093d575080516020145b801561097d575080517f1626ba7e000000000000000000000000000000000000000000000000000000009061097b9083016020908101908401610e40565b145b98975050505050505050565b60008082516041036109bf5760208301516040840151606085015160001a6109b3878285856109ce565b945094505050506109c7565b506000905060025b9250929050565b6000807f7fffffffffffffffffffffffffffffff5d576e7357a4501ddfe92f46681b20a0831115610a055750600090506003610a89565b6040805160008082526020820180845289905260ff881692820192909252606081018690526080810185905260019060a0016020604051602081039080840390855afa158015610a59573d6000803e3d6000fd5b5050604051601f1901519150506001600160a01b038116610a8257600060019250925050610a89565b9150600090505b94509492505050565b600060208284031215610aa457600080fd5b81357fffffffff000000000000000000000000000000000000000000000000000000008116811461053d57600080fd5b6001600160a01b0381168114610ae957600080fd5b50565b600060208284031215610afe57600080fd5b813561053d81610ad4565b634e487b7160e01b600052604160045260246000fd5b600082601f830112610b3057600080fd5b813567ffffffffffffffff80821115610b4b57610b4b610b09565b604051601f8301601f19908116603f01168101908282118183101715610b7357610b73610b09565b81604052838152866020858801011115610b8c57600080fd5b836020870160208301376000602085830101528094505050505092915050565b600080600060608486031215610bc157600080fd5b8335610bcc81610ad4565b925060208401358015158114610be157600080fd5b9150604084013567ffffffffffffffff811115610bfd57600080fd5b610c0986828701610b1f565b9150509250925092565b60008060408385031215610c2657600080fd5b8235610c3181610ad4565b9150602083013567ffffffffffffffff811115610c4d57600080fd5b610c5985828601610b1f565b9150509250929050565b600060208284031215610c7557600080fd5b5035919050565b600080600060608486031215610c9157600080fd5b8335610c9c81610ad4565b9250602084013567ffffffffffffffff80821115610cb957600080fd5b610cc587838801610b1f565b93506040860135915080821115610cdb57600080fd5b50610c0986828701610b1f565b60005b83811015610d03578181015183820152602001610ceb565b50506000910152565b60008151808452610d24816020860160208601610ce8565b601f01601f19169290920160200192915050565b60208152600061053d6020830184610d0c565b600080600060608486031215610d6057600080fd5b8335610d6b81610ad4565b9250602084013591506040840135610d8281610ad4565b809150509250925092565b60008060408385031215610da057600080fd5b82359150602083013567ffffffffffffffff811115610c4d57600080fd5b6bffffffffffffffffffffffff198360601b16815260008251610de8816014850160208701610ce8565b919091016014019392505050565b60008251610e08818460208701610ce8565b9190910192915050565b604081526000610e256040830185610d0c565b8281036020840152610e378185610d0c565b95945050505050565b600060208284031215610e5257600080fd5b5051919050565b600060018201610e7957634e487b7160e01b600052601160045260246000fd5b5060010190565b634e487b7160e01b600052602160045260246000fd5b8281526040602082015260006107f96040830184610d0c56fea2646970667358221220322c4b37d9877ce39026145dfd5e13538c0dbb2fa32819896ed128d64db68bf064736f6c63430008110033",
  "devdoc": {
    "kind": "dev",
    "methods": {},
    "version": 1
  },
  "userdoc": {
    "kind": "user",
    "methods": {},
    "version": 1
  },
  "storageLayout": {
    "storage": [
      {
        "astId": 6078,
        "contract": "contracts/root/Root.sol:Root",
        "label": "owner",
        "offset": 0,
        "slot": "0",
        "type": "t_address"
      },
      {
        "astId": 6080,
        "contract": "contracts/root/Root.sol:Root",
        "label": "currentNonce",
        "offset": 0,
        "slot": "1",
        "type": "t_uint256"
      },
      {
        "astId": 6008,
        "contract": "contracts/root/Root.sol:Root",
        "label": "controllers",
        "offset": 0,
        "slot": "2",
        "type": "t_mapping(t_address,t_bool)"
      },
      {
        "astId": 6230,
        "contract": "contracts/root/Root.sol:Root",
        "label": "locked",
        "offset": 0,
        "slot": "3",
        "type": "t_mapping(t_bytes32,t_bool)"
      }
    ],
    "types": {
      "t_address": {
        "encoding": "inplace",
        "label": "address",
        "numberOfBytes": "20"
      },
      "t_bool": {
        "encoding": "inplace",
        "label": "bool",
        "numberOfBytes": "1"
      },
      "t_bytes32": {
        "encoding": "inplace",
        "label": "bytes32",
        "numberOfBytes": "32"
      },
      "t_mapping(t_address,t_bool)": {
        "encoding": "mapping",
        "key": "t_address",
        "label": "mapping(address => bool)",
        "numberOfBytes": "32",
        "value": "t_bool"
      },
      "t_mapping(t_bytes32,t_bool)": {
        "encoding": "mapping",
        "key": "t_bytes32",
        "label": "mapping(bytes32 => bool)",
        "numberOfBytes": "32",
        "value": "t_bool"
      },
      "t_uint256": {
        "encoding": "inplace",
        "label": "uint256",
        "numberOfBytes": "32"
      }
    }
  }
}