{
  "address": "0x3E666767F2Bf95894F098Ca49a18ABfE17C63A85",
  "abi": [
    {
      "inputs": [
        {
          "internalType": "address",
          "name": "_owner",
          "type": "address"
        },
        {
          "internalType": "contract INameWrapperRegistry",
          "name": "_registry",
          "type": "address"
        }
      ],
      "stateMutability": "nonpayable",
      "type": "constructor"
    },
    {
      "inputs": [],
      "name": "DiamondWritable__InvalidInitializationParameters",
      "type": "error"
    },
    {
      "inputs": [],
      "name": "DiamondWritable__RemoveTargetNotZeroAddress",
      "type": "error"
    },
    {
      "inputs": [],
      "name": "DiamondWritable__ReplaceTargetIsIdentical",
      "type": "error"
    },
    {
      "inputs": [],
      "name": "DiamondWritable__SelectorAlreadyAdded",
      "type": "error"
    },
    {
      "inputs": [],
      "name": "DiamondWritable__SelectorIsImmutable",
      "type": "error"
    },
    {
      "inputs": [],
      "name": "DiamondWritable__SelectorNotFound",
      "type": "error"
    },
    {
      "inputs": [],
      "name": "DiamondWritable__SelectorNotSpecified",
      "type": "error"
    },
    {
      "inputs": [],
      "name": "DiamondWritable__TargetHasNoCode",
      "type": "error"
    },
    {
      "inputs": [],
      "name": "ERC165Base__InvalidInterfaceId",
      "type": "error"
    },
    {
      "inputs": [],
      "name": "NotDiamondOwner",
      "type": "error"
    },
    {
      "inputs": [],
      "name": "Ownable__NotOwner",
      "type": "error"
    },
    {
      "inputs": [],
      "name": "Ownable__NotTransitiveOwner",
      "type": "error"
    },
    {
      "inputs": [],
      "name": "Proxy__ImplementationIsNotContract",
      "type": "error"
    },
    {
      "inputs": [],
      "name": "SafeOwnable__NotNomineeOwner",
      "type": "error"
    },
    {
      "inputs": [],
      "name": "Unauthorised",
      "type": "error"
    },
    {
      "anonymous": false,
      "inputs": [
        {
          "indexed": true,
          "internalType": "address",
          "name": "owner",
          "type": "address"
        },
        {
          "indexed": true,
          "internalType": "address",
          "name": "operator",
          "type": "address"
        },
        {
          "indexed": false,
          "internalType": "bool",
          "name": "approved",
          "type": "bool"
        }
      ],
      "name": "ApprovalForAll",
      "type": "event"
    },
    {
      "anonymous": false,
      "inputs": [
        {
          "indexed": false,
          "internalType": "address",
          "name": "owner",
          "type": "address"
        },
        {
          "indexed": true,
          "internalType": "bytes32",
          "name": "node",
          "type": "bytes32"
        },
        {
          "indexed": true,
          "internalType": "address",
          "name": "delegate",
          "type": "address"
        },
        {
          "indexed": true,
          "internalType": "bool",
          "name": "approved",
          "type": "bool"
        }
      ],
      "name": "Approved",
      "type": "event"
    },
    {
      "anonymous": false,
      "inputs": [
        {
          "indexed": true,
          "internalType": "address",
          "name": "cloner",
          "type": "address"
        },
        {
          "indexed": true,
          "internalType": "address",
          "name": "resolver",
          "type": "address"
        }
      ],
      "name": "CloneDiamondResolver",
      "type": "event"
    },
    {
      "anonymous": false,
      "inputs": [
        {
          "components": [
            {
              "internalType": "address",
              "name": "target",
              "type": "address"
            },
            {
              "internalType": "enum IDiamondWritableInternal.FacetCutAction",
              "name": "action",
              "type": "uint8"
            },
            {
              "internalType": "bytes4[]",
              "name": "selectors",
              "type": "bytes4[]"
            }
          ],
          "indexed": false,
          "internalType": "struct IDiamondWritableInternal.FacetCut[]",
          "name": "facetCuts",
          "type": "tuple[]"
        },
        {
          "indexed": false,
          "internalType": "address",
          "name": "target",
          "type": "address"
        },
        {
          "indexed": false,
          "internalType": "bytes",
          "name": "data",
          "type": "bytes"
        }
      ],
      "name": "DiamondCut",
      "type": "event"
    },
    {
      "anonymous": false,
      "inputs": [
        {
          "indexed": true,
          "internalType": "address",
          "name": "previousOwner",
          "type": "address"
        },
        {
          "indexed": true,
          "internalType": "address",
          "name": "newOwner",
          "type": "address"
        }
      ],
      "name": "OwnershipTransferred",
      "type": "event"
    },
    {
      "anonymous": false,
      "inputs": [
        {
          "indexed": true,
          "internalType": "bytes32",
          "name": "node",
          "type": "bytes32"
        },
        {
          "indexed": false,
          "internalType": "uint64",
          "name": "newVersion",
          "type": "uint64"
        }
      ],
      "name": "VersionChanged",
      "type": "event"
    },
    {
      "stateMutability": "payable",
      "type": "fallback"
    },
    {
      "inputs": [],
      "name": "acceptOwnership",
      "outputs": [],
      "stateMutability": "nonpayable",
      "type": "function"
    },
    {
      "inputs": [
        {
          "internalType": "bytes32",
          "name": "node",
          "type": "bytes32"
        },
        {
          "internalType": "address",
          "name": "delegate",
          "type": "address"
        },
        {
          "internalType": "bool",
          "name": "approved",
          "type": "bool"
        }
      ],
      "name": "approve",
      "outputs": [],
      "stateMutability": "nonpayable",
      "type": "function"
    },
    {
      "inputs": [
        {
          "internalType": "bytes32",
          "name": "node",
          "type": "bytes32"
        }
      ],
      "name": "clearRecords",
      "outputs": [],
      "stateMutability": "nonpayable",
      "type": "function"
    },
    {
      "inputs": [],
      "name": "clone",
      "outputs": [],
      "stateMutability": "nonpayable",
      "type": "function"
    },
    {
      "inputs": [
        {
          "components": [
            {
              "internalType": "address",
              "name": "target",
              "type": "address"
            },
            {
              "internalType": "enum IDiamondWritableInternal.FacetCutAction",
              "name": "action",
              "type": "uint8"
            },
            {
              "internalType": "bytes4[]",
              "name": "selectors",
              "type": "bytes4[]"
            }
          ],
          "internalType": "struct IDiamondWritableInternal.FacetCut[]",
          "name": "facetCuts",
          "type": "tuple[]"
        },
        {
          "internalType": "address",
          "name": "target",
          "type": "address"
        },
        {
          "internalType": "bytes",
          "name": "data",
          "type": "bytes"
        }
      ],
      "name": "diamondCut",
      "outputs": [],
      "stateMutability": "nonpayable",
      "type": "function"
    },
    {
      "inputs": [
        {
          "internalType": "bytes4",
          "name": "selector",
          "type": "bytes4"
        }
      ],
      "name": "facetAddress",
      "outputs": [
        {
          "internalType": "address",
          "name": "facet",
          "type": "address"
        }
      ],
      "stateMutability": "view",
      "type": "function"
    },
    {
      "inputs": [],
      "name": "facetAddresses",
      "outputs": [
        {
          "internalType": "address[]",
          "name": "addresses",
          "type": "address[]"
        }
      ],
      "stateMutability": "view",
      "type": "function"
    },
    {
      "inputs": [
        {
          "internalType": "address",
          "name": "facet",
          "type": "address"
        }
      ],
      "name": "facetFunctionSelectors",
      "outputs": [
        {
          "internalType": "bytes4[]",
          "name": "selectors",
          "type": "bytes4[]"
        }
      ],
      "stateMutability": "view",
      "type": "function"
    },
    {
      "inputs": [],
      "name": "facets",
      "outputs": [
        {
          "components": [
            {
              "internalType": "address",
              "name": "target",
              "type": "address"
            },
            {
              "internalType": "bytes4[]",
              "name": "selectors",
              "type": "bytes4[]"
            }
          ],
          "internalType": "struct IDiamondReadable.Facet[]",
          "name": "diamondFacets",
          "type": "tuple[]"
        }
      ],
      "stateMutability": "view",
      "type": "function"
    },
    {
      "inputs": [],
      "name": "getFallbackAddress",
      "outputs": [
        {
          "internalType": "address",
          "name": "fallbackAddress",
          "type": "address"
        }
      ],
      "stateMutability": "view",
      "type": "function"
    },
    {
      "inputs": [
        {
          "internalType": "bytes4",
          "name": "sig",
          "type": "bytes4"
        }
      ],
      "name": "getImplementation",
      "outputs": [
        {
          "internalType": "address",
          "name": "implementation",
          "type": "address"
        }
      ],
      "stateMutability": "view",
      "type": "function"
    },
    {
      "inputs": [
        {
          "internalType": "address",
          "name": "_owner",
          "type": "address"
        },
        {
          "internalType": "address",
          "name": "_fallback",
          "type": "address"
        }
      ],
      "name": "initialize",
      "outputs": [],
      "stateMutability": "nonpayable",
      "type": "function"
    },
    {
      "inputs": [
        {
          "internalType": "address",
          "name": "owner",
          "type": "address"
        },
        {
          "internalType": "bytes32",
          "name": "node",
          "type": "bytes32"
        },
        {
          "internalType": "address",
          "name": "delegate",
          "type": "address"
        }
      ],
      "name": "isApprovedFor",
      "outputs": [
        {
          "internalType": "bool",
          "name": "",
          "type": "bool"
        }
      ],
      "stateMutability": "view",
      "type": "function"
    },
    {
      "inputs": [
        {
          "internalType": "address",
          "name": "account",
          "type": "address"
        },
        {
          "internalType": "address",
          "name": "operator",
          "type": "address"
        }
      ],
      "name": "isApprovedForAll",
      "outputs": [
        {
          "internalType": "bool",
          "name": "",
          "type": "bool"
        }
      ],
      "stateMutability": "view",
      "type": "function"
    },
    {
      "inputs": [
        {
          "internalType": "bytes[]",
          "name": "data",
          "type": "bytes[]"
        }
      ],
      "name": "multicall",
      "outputs": [
        {
          "internalType": "bytes[]",
          "name": "results",
          "type": "bytes[]"
        }
      ],
      "stateMutability": "nonpayable",
      "type": "function"
    },
    {
      "inputs": [
        {
          "internalType": "bytes32",
          "name": "nodehash",
          "type": "bytes32"
        },
        {
          "internalType": "bytes[]",
          "name": "data",
          "type": "bytes[]"
        }
      ],
      "name": "multicallWithNodeCheck",
      "outputs": [
        {
          "internalType": "bytes[]",
          "name": "results",
          "type": "bytes[]"
        }
      ],
      "stateMutability": "nonpayable",
      "type": "function"
    },
    {
      "inputs": [],
      "name": "nomineeOwner",
      "outputs": [
        {
          "internalType": "address",
          "name": "",
          "type": "address"
        }
      ],
      "stateMutability": "view",
      "type": "function"
    },
    {
      "inputs": [],
      "name": "owner",
      "outputs": [
        {
          "internalType": "address",
          "name": "",
          "type": "address"
        }
      ],
      "stateMutability": "view",
      "type": "function"
    },
    {
      "inputs": [
        {
          "internalType": "bytes32",
          "name": "node",
          "type": "bytes32"
        }
      ],
      "name": "recordVersions",
      "outputs": [
        {
          "internalType": "uint64",
          "name": "",
          "type": "uint64"
        }
      ],
      "stateMutability": "view",
      "type": "function"
    },
    {
      "inputs": [],
      "name": "registry",
      "outputs": [
        {
          "internalType": "contract INameWrapperRegistry",
          "name": "",
          "type": "address"
        }
      ],
      "stateMutability": "view",
      "type": "function"
    },
    {
      "inputs": [
        {
          "internalType": "address",
          "name": "operator",
          "type": "address"
        },
        {
          "internalType": "bool",
          "name": "approved",
          "type": "bool"
        }
      ],
      "name": "setApprovalForAll",
      "outputs": [],
      "stateMutability": "nonpayable",
      "type": "function"
    },
    {
      "inputs": [
        {
          "internalType": "address",
          "name": "fallbackAddress",
          "type": "address"
        }
      ],
      "name": "setFallbackAddress",
      "outputs": [],
      "stateMutability": "nonpayable",
      "type": "function"
    },
    {
      "inputs": [
        {
          "internalType": "bytes4[]",
          "name": "interfaceId",
          "type": "bytes4[]"
        },
        {
          "internalType": "bool",
          "name": "status",
          "type": "bool"
        }
      ],
      "name": "setMultiSupportsInterface",
      "outputs": [],
      "stateMutability": "nonpayable",
      "type": "function"
    },
    {
      "inputs": [
        {
          "internalType": "bytes4",
          "name": "interfaceId",
          "type": "bytes4"
        },
        {
          "internalType": "bool",
          "name": "status",
          "type": "bool"
        }
      ],
      "name": "setSupportsInterface",
      "outputs": [],
      "stateMutability": "nonpayable",
      "type": "function"
    },
    {
      "inputs": [
        {
          "internalType": "bytes4",
          "name": "interfaceID",
          "type": "bytes4"
        }
      ],
      "name": "supportsInterface",
      "outputs": [
        {
          "internalType": "bool",
          "name": "",
          "type": "bool"
        }
      ],
      "stateMutability": "view",
      "type": "function"
    },
    {
      "inputs": [
        {
          "internalType": "address",
          "name": "account",
          "type": "address"
        }
      ],
      "name": "transferOwnership",
      "outputs": [],
      "stateMutability": "nonpayable",
      "type": "function"
    },
    {
      "stateMutability": "payable",
      "type": "receive"
    }
  ],
  "transactionHash": "0x860bfc0d3cf42ab7387a99373322afc427291ee40eb020b97558a3bea7acab6e",
  "args": [
    "0x000000187c72ee4a4120a3E626425595a34F185B",
    "0x7A4D992eae0969C5856e61F80F71853cAbba8b67"
  ],
  "numDeployments": 1,
  "solcInputHash": "b5f5b48cd12125b1216b07a417b1a785",
  "bytecode": "0x60a06040523480156200001157600080fd5b5060405162004fd738038062004fd7833981016040819052620000349162001282565b816200004281600062000056565b506001600160a01b0316608052506200148e565b6200006d8282620003bf60201b620018671760201c565b6001600160a01b0381166200036b57604080516008808252610120820190925260009160208201610100803683370190505090506000637b10399960e01b8282620000b881620012c1565b935081518110620000cd57620000cd620012e9565b6001600160e01b03199092166020928302919091019091015263a22cb46560e01b8282620000fb81620012c1565b935081518110620001105762000110620012e9565b6001600160e01b03199092166020928302919091019091015263e985e9c560e01b82826200013e81620012c1565b935081518110620001535762000153620012e9565b6001600160e01b03199092166020928302919091019091015263a4b91a0160e01b82826200018181620012c1565b935081518110620001965762000196620012e9565b6001600160e01b0319909216602092830291909101909101526354bc259f60e11b8282620001c481620012c1565b935081518110620001d957620001d9620012e9565b6001600160e01b03199092166020928302919091019091015263d700ff3360e01b82826200020781620012c1565b9350815181106200021c576200021c620012e9565b6001600160e01b0319909216602092830291909101909101526306c07aeb60e31b82826200024a81620012c1565b9350815181106200025f576200025f620012e9565b6001600160e01b0319909216602092830291909101909101526309ed460760e01b82826200028d81620012c1565b935081518110620002a257620002a2620012e9565b6001600160e01b03199290921660209283029190910190910152604080516001808252818301909252600091816020015b60408051606080820183526000808352602083015291810191909152815260200190600190039081620002d357905050604080516060810190915230815290915060208101600081526020018481525081600081518110620003395762000339620012e9565b602002602001018190525062000367816000604051806020016040528060008152506200090d60201b60201c565b5050505b6200037f637b10399960e01b600162000ae9565b6200039363e103286b60e01b600162000ae9565b620003a7637b10399960e01b600162000ae9565b620003bb6309ed460760e01b600162000ae9565b5050565b7fb40d49f5a32ade8065d600aab18d96945a09d7fbb3e248099e22f7c4c10e01898054819060ff1615620004275760405162461bcd60e51b815260206004820152600b60248201526a125b9a5d1a585b1a5e995960aa1b604482015260640160405180910390fd5b6001600160a01b038316620008795760408051600d8082526101c08201909252600091602082016101a0803683370190505090506000632c40805960e01b82826200047281620012c1565b935081518110620004875762000487620012e9565b6001600160e01b031990921660209283029190910190910152639142376560e01b8282620004b581620012c1565b935081518110620004ca57620004ca620012e9565b6001600160e01b03199092166020928302919091019091015263dc9cc64560e01b8282620004f881620012c1565b9350815181106200050d576200050d620012e9565b6001600160e01b0319909216602092830291909101909101526307e4c70760e21b82826200053b81620012c1565b935081518110620005505762000550620012e9565b6001600160e01b031990921660209283029190910190910152637a0ed62760e01b82826200057e81620012c1565b935081518110620005935762000593620012e9565b6001600160e01b0319909216602092830291909101909101526356fe50af60e11b8282620005c181620012c1565b935081518110620005d657620005d6620012e9565b6001600160e01b0319909216602092830291909101909101526314bbdacb60e21b82826200060481620012c1565b935081518110620006195762000619620012e9565b6001600160e01b0319909216602092830291909101909101526366ffd66360e11b82826200064781620012c1565b9350815181106200065c576200065c620012e9565b6001600160e01b0319909216602092830291909101909101526301ffc9a760e01b82826200068a81620012c1565b9350815181106200069f576200069f620012e9565b6001600160e01b031990921660209283029190910190910152638da5cb5b60e01b8282620006cd81620012c1565b935081518110620006e257620006e2620012e9565b6001600160e01b03199092166020928302919091019091015263455a8a8560e11b82826200071081620012c1565b935081518110620007255762000725620012e9565b6001600160e01b03199092166020928302919091019091015263f2fde38b60e01b82826200075381620012c1565b935081518110620007685762000768620012e9565b6001600160e01b0319909216602092830291909101909101526379ba509760e01b82826200079681620012c1565b935081518110620007ab57620007ab620012e9565b6001600160e01b03199290921660209283029190910190910152604080516001808252818301909252600091816020015b60408051606080820183526000808352602083015291810191909152815260200190600190039081620007dc57905050604080516060810190915230815290915060208101600081526020018481525081600081518110620008425762000842620012e9565b602002602001018190525062000870816000604051806020016040528060008152506200090d60201b60201c565b50505062000884565b620008848362000b5b565b6200089863dc9cc64560e01b600162000ae9565b620008ac632f40adcf60e21b600162000ae9565b620008c06307e4c70760e21b600162000ae9565b620008d46348e2b09360e01b600162000ae9565b620008e86301ffc9a760e01b600162000ae9565b620008fc6307f5828d60e41b600162000ae9565b620009078462000b95565b50505050565b60006200092462000c0960201b62001f181760201c565b600181015490915061ffff811690819060009060071615620009585750600381901c60009081526002840160205260409020545b60005b875181101562000a575760008882815181106200097c576200097c620012e9565b60200260200101519050600081602001519050816040015151600003620009b65760405163eb6c3aeb60e01b815260040160405180910390fd5b6000816002811115620009cd57620009cd620012ff565b03620009ec57620009e18786868562000c2d565b909550935062000a4c565b600181600281111562000a035762000a03620012ff565b0362000a1b5762000a15878362000d8c565b62000a4c565b600281600281111562000a325762000a32620012ff565b0362000a4c5762000a468786868562000ef2565b90955093505b50506001016200095b565b5082821462000a745760018401805461ffff191661ffff84161790555b600782161562000a9757600382901c600090815260028501602052604090208190555b7f8faa70878671ccd212d20771b795c50af8fd3ff6cf27f4bde57e5d4de0aeb67387878760405162000acc9392919062001369565b60405180910390a162000ae086866200111e565b50505050505050565b6001600160e01b0319808316900362000b155760405163b0a19dd560e01b815260040160405180910390fd5b8062000b2b6200121b60201b62001f3c1760201c565b6001600160e01b03199390931660009081526020939093526040909220805460ff19169215159290921790915550565b8062000b7162000c0960201b62001f181760201c565b60030180546001600160a01b0319166001600160a01b039290921691909117905550565b600062000bac6200123f60201b62001f601760201c565b80546040519192506001600160a01b03808516929116907f8be0079c531659141344cd1fd0a4f28419497f9722a3daafe3b4186f6b6457e090600090a380546001600160a01b0319166001600160a01b0392909216919091179055565b7f177481ac65e4292921c69f62d1cc7f57541261e5d61c8175cf4e36a01c9bfc9390565b805160009081906001600160a01b0316301480159062000c6d575062000c6b83600001516001600160a01b03166200126360201b620005f51760201c565b155b1562000c8c57604051633ddc5cab60e21b815260040160405180910390fd5b60005b83604001515181101562000d7f5760008460400151828151811062000cb85762000cb8620012e9565b6020908102919091018101516001600160e01b031981166000908152918a9052604090912054909150606081901c1562000d0557604051634923a77160e11b815260040160405180910390fd5b85516001600160e01b0319838116600081815260208d90526040902060609390931b6001600160601b0319168b1790925560058a901b60e090811692831c91831c1999909916179781900362000d6f57600389901c600090815260028b0160205260408120989098555b5050506001958601950162000c8f565b5093959294509192505050565b62000daf81600001516001600160a01b03166200126360201b620005f51760201c565b62000dcd57604051633ddc5cab60e21b815260040160405180910390fd5b60005b81604001515181101562000eed5760008260400151828151811062000df95762000df9620012e9565b6020908102919091018101516001600160e01b03198116600090815291869052604090912054909150606081901c8062000e46576040516337e25a9760e11b815260040160405180910390fd5b306001600160a01b0382160362000e705760405163e983573160e01b815260040160405180910390fd5b84600001516001600160a01b0316816001600160a01b03160362000ea7576040516330baabf360e11b815260040160405180910390fd5b5083516001600160e01b031992909216600090815260208690526040902060609290921b6001600160601b0319166001600160601b039190911617905560010162000dd0565b505050565b805160009081906001600160a01b03161562000f2157604051633ab3490960e21b815260040160405180910390fd5b600385901c6007861660005b8560400151518110156200110a5760008660400151828151811062000f565762000f56620012e9565b6020908102919091018101516001600160e01b031981166000908152918c9052604090912054909150606081901c62000fa2576040516337e25a9760e11b815260040160405180910390fd5b30606082901c0362000fc75760405163e983573160e01b815260040160405180910390fd5b600089900362000ff557600019909401600081815260028c0160205260409020549850936007935062000ffd565b600019909301925b600584901b89901b6000806001600160e01b03198084169086161462001050576001600160e01b03198316600090815260208f90526040902080546001600160601b0319166001600160601b0386161790555b50506001600160e01b03198316600090815260208d90526040812055611fff600383901c1660e0600584901b16878214620010b557600082815260028f016020526040902080546001600160e01b031980841c19909116908516831c179055620010d9565b80836001600160e01b031916901c816001600160e01b031960001b901c198d16179b505b86600003620010f857600088815260028f01602052604081208190559b505b50506001909301925062000f2d915050565b5060039190911b1796939550929350505050565b8051156001600160a01b03831615146200114b576040516326df4ccd60e01b815260040160405180910390fd5b6001600160a01b03821615620003bb576001600160a01b0382163014620011a9576200118b826001600160a01b03166200126360201b620005f51760201c565b620011a957604051633ddc5cab60e21b815260040160405180910390fd5b6000826001600160a01b031682604051620011c5919062001470565b600060405180830381855af49150503d806000811462001202576040519150601f19603f3d011682016040523d82523d6000602084013e62001207565b606091505b505090508062000eed573d6000803e3d6000fd5b7ffc606c433378e3a7e0a6a531deac289b66caa1b4aa8554fd4ab2c6f1570f92d890565b7f8a22373512790c48b83a1fe2efdd2888d4a917bcdc24d0adf63e60f67168046090565b3b151590565b6001600160a01b03811681146200127f57600080fd5b50565b600080604083850312156200129657600080fd5b8251620012a38162001269565b6020840151909250620012b68162001269565b809150509250929050565b600060018201620012e257634e487b7160e01b600052601160045260246000fd5b5060010190565b634e487b7160e01b600052603260045260246000fd5b634e487b7160e01b600052602160045260246000fd5b60005b838110156200133257818101518382015260200162001318565b50506000910152565b600081518084526200135581602086016020860162001315565b601f01601f19169290920160200192915050565b60006060808301818452808751808352608092508286019150828160051b8701016020808b0160005b848110156200143e57898403607f19018652815180516001600160a01b03168552838101518986019060038110620013da57634e487b7160e01b600052602160045260246000fd5b868601526040918201519186018a905281519081905290840190600090898701905b80831015620014285783516001600160e01b0319168252928601926001929092019190860190620013fc565b5097850197955050509082019060010162001392565b50506001600160a01b038a169088015286810360408801526200146281896200133b565b9a9950505050505050505050565b600082516200148481846020870162001315565b9190910192915050565b608051613b2d620014aa60003960006103a10152613b2d6000f3fe6080604052600436106101a55760003560e01c80638da5cb5b116100e1578063adfca15e1161008a578063dc9cc64511610064578063dc9cc64514610559578063e32954eb14610579578063e985e9c514610599578063f2fde38b146105b9576101ac565b8063adfca15e1461049a578063cdffacc6146104c7578063d700ff3314610520576101ac565b8063a4b91a01116100bb578063a4b91a011461042d578063a9784b3e1461044d578063ac9650d81461046d576101ac565b80638da5cb5b146103d857806391423765146103ed578063a22cb4651461040d576101ac565b806352ef6b2c1161014e57806379ba50971161012857806379ba5097146103585780637a0ed6271461036d5780637b1039991461038f5780638ab5150a146103c3576101ac565b806352ef6b2c146102f657806354e7796f14610318578063717dbd4c14610338576101ac565b80632c4080591161017f5780632c408059146102895780633603d758146102b6578063485cc955146102d6576101ac565b806301ffc9a71461021f57806309ed4607146102545780631f931c1c14610269576101ac565b366101ac57005b60006101b66105d9565b90506001600160a01b0381163b6101f9576040517f87c9fc3400000000000000000000000000000000000000000000000000000000815260040160405180910390fd5b3660008037600080366000845af43d6000803e808015610218573d6000f35b3d6000fd5b005b34801561022b57600080fd5b5061023f61023a36600461316e565b6105fb565b60405190151581526020015b60405180910390f35b34801561026057600080fd5b5061021d610640565b34801561027557600080fd5b5061021d6102843660046131ea565b6106ff565b34801561029557600080fd5b5061029e610789565b6040516001600160a01b03909116815260200161024b565b3480156102c257600080fd5b5061021d6102d1366004613299565b6107bc565b3480156102e257600080fd5b5061021d6102f13660046132b2565b610809565b34801561030257600080fd5b5061030b610c05565b60405161024b91906132eb565b34801561032457600080fd5b5061021d610333366004613346565b610ddb565b34801561034457600080fd5b5061021d610353366004613478565b610e48565b34801561036457600080fd5b5061021d610ee9565b34801561037957600080fd5b50610382610f45565b60405161024b9190613504565b34801561039b57600080fd5b5061029e7f000000000000000000000000000000000000000000000000000000000000000081565b3480156103cf57600080fd5b5061029e6113f4565b3480156103e457600080fd5b5061029e6113fe565b3480156103f957600080fd5b5061021d610408366004613581565b611408565b34801561041957600080fd5b5061021d61042836600461359e565b61148e565b34801561043957600080fd5b5061021d6104483660046135bc565b611498565b34801561045957600080fd5b5061023f6104683660046135fe565b6114a8565b34801561047957600080fd5b5061048d610488366004613635565b611503565b60405161024b91906136c7565b3480156104a657600080fd5b506104ba6104b5366004613581565b611518565b60405161024b9190613729565b3480156104d357600080fd5b5061029e6104e236600461316e565b6001600160e01b03191660009081527f177481ac65e4292921c69f62d1cc7f57541261e5d61c8175cf4e36a01c9bfc93602052604090205460601c90565b34801561052c57600080fd5b5061054061053b366004613299565b611697565b60405167ffffffffffffffff909116815260200161024b565b34801561056557600080fd5b5061029e61057436600461316e565b6116d4565b34801561058557600080fd5b5061048d61059436600461373c565b6117c9565b3480156105a557600080fd5b5061023f6105b43660046132b2565b6117d6565b3480156105c557600080fd5b5061021d6105d4366004613581565b611825565b60006105f06000356001600160e01b0319166116d4565b905090565b3b151590565b600061060682611f84565b8061063a57507f4fbf0433000000000000000000000000000000000000000000000000000000006001600160e01b03198316145b92915050565b600061064b3061208c565b6040517f485cc9550000000000000000000000000000000000000000000000000000000081523360048201523060248201529091506001600160a01b0382169063485cc95590604401600060405180830381600087803b1580156106ae57600080fd5b505af11580156106c2573d6000803e3d6000fd5b50506040516001600160a01b03841692503391507f40961b548e4af03f13fc20c42826b938367a56f2a4409159d6a597f34592605190600090a350565b610707612128565b6001600160a01b0316336001600160a01b03161461073857604051632f7a8ee160e01b815260040160405180910390fd5b6107826107458587613788565b8484848080601f01602080910402602001604051908101604052809392919081815260200183838082843760009201919091525061215b92505050565b5050505050565b60006105f07f177481ac65e4292921c69f62d1cc7f57541261e5d61c8175cf4e36a01c9bfc96546001600160a01b031690565b806107c681612371565b6107fc576040517fd7a2ae6a00000000000000000000000000000000000000000000000000000000815260040160405180910390fd5b61080582612459565b5050565b6108138282611867565b6001600160a01b038116610b8b57604080516008808252610120820190925260009160208201610100803683370190505090506000637b10399960e01b828261085b81613871565b93508151811061086d5761086d61388b565b6001600160e01b0319909216602092830291909101909101527fa22cb4650000000000000000000000000000000000000000000000000000000082826108b281613871565b9350815181106108c4576108c461388b565b6001600160e01b0319909216602092830291909101909101527fe985e9c500000000000000000000000000000000000000000000000000000000828261090981613871565b93508151811061091b5761091b61388b565b6001600160e01b0319909216602092830291909101909101527fa4b91a0100000000000000000000000000000000000000000000000000000000828261096081613871565b9350815181106109725761097261388b565b6001600160e01b0319909216602092830291909101909101527fa9784b3e0000000000000000000000000000000000000000000000000000000082826109b781613871565b9350815181106109c9576109c961388b565b6001600160e01b0319909216602092830291909101909101527fd700ff33000000000000000000000000000000000000000000000000000000008282610a0e81613871565b935081518110610a2057610a2061388b565b6001600160e01b0319909216602092830291909101909101527f3603d758000000000000000000000000000000000000000000000000000000008282610a6581613871565b935081518110610a7757610a7761388b565b6001600160e01b0319909216602092830291909101909101527f09ed4607000000000000000000000000000000000000000000000000000000008282610abc81613871565b935081518110610ace57610ace61388b565b6001600160e01b03199290921660209283029190910190910152604080516001808252818301909252600091816020015b60408051606080820183526000808352602083015291810191909152815260200190600190039081610aff57905050604080516060810190915230815290915060208101600081526020018481525081600081518110610b6157610b6161388b565b6020026020010181905250610b878160006040518060200160405280600081525061215b565b5050505b610b9d637b10399960e01b6001612531565b610bc87fe103286b000000000000000000000000000000000000000000000000000000006001612531565b610bda637b10399960e01b6001612531565b6108057f09ed4607000000000000000000000000000000000000000000000000000000006001612531565b7f177481ac65e4292921c69f62d1cc7f57541261e5d61c8175cf4e36a01c9bfc94546060907f177481ac65e4292921c69f62d1cc7f57541261e5d61c8175cf4e36a01c9bfc939061ffff1667ffffffffffffffff811115610c6857610c68613372565b604051908082528060200260200182016040528015610c91578160200160208202803683370190505b50915060008060005b600184015461ffff16821015610dd3576000818152600285016020526040812054905b6008811015610dbe5783610cd081613871565b600188015490955061ffff1685119050610dbe57600581901b82901b6001600160e01b0319811660009081526020889052604081205460601c90805b88811015610d61578a8181518110610d2657610d2661388b565b60200260200101516001600160a01b0316836001600160a01b031603610d4f5760019150610d61565b80610d5981613871565b915050610d0c565b508015610d7057505050610dac565b818a8981518110610d8357610d8361388b565b6001600160a01b039092166020928302919091019091015287610da581613871565b9850505050505b80610db681613871565b915050610cbd565b50508080610dcb90613871565b915050610c9a565b505082525090565b7f8a22373512790c48b83a1fe2efdd2888d4a917bcdc24d0adf63e60f671680460546001600160a01b03163314610e3e576040517f3058081000000000000000000000000000000000000000000000000000000000815260040160405180910390fd5b6108058282612531565b7f8a22373512790c48b83a1fe2efdd2888d4a917bcdc24d0adf63e60f671680460546001600160a01b03163314610eab576040517f3058081000000000000000000000000000000000000000000000000000000000815260040160405180910390fd5b815160005b81811015610ee357610edb848281518110610ecd57610ecd61388b565b602002602001015184612531565b600101610eb0565b50505050565b610ef16125c0565b6001600160a01b0316336001600160a01b031614610f3b576040517fefd1052d00000000000000000000000000000000000000000000000000000000815260040160405180910390fd5b610f436125e8565b565b7f177481ac65e4292921c69f62d1cc7f57541261e5d61c8175cf4e36a01c9bfc94546060907f177481ac65e4292921c69f62d1cc7f57541261e5d61c8175cf4e36a01c9bfc939061ffff1667ffffffffffffffff811115610fa857610fa8613372565b604051908082528060200260200182016040528015610fee57816020015b604080518082019091526000815260606020820152815260200190600190039081610fc65790505b50600182015490925060009061ffff1667ffffffffffffffff81111561101657611016613372565b60405190808252806020026020018201604052801561103f578160200160208202803683370190505b50905060008060005b600185015461ffff16821015611382576000818152600286016020526040812054905b600881101561136d578361107e81613871565b600189015490955061ffff168511905061136d57600581901b82901b6001600160e01b0319811660009081526020899052604081205460601c90805b8881101561120157826001600160a01b03168c82815181106110de576110de61388b565b6020026020010151600001516001600160a01b0316036111ef57838c828151811061110b5761110b61388b565b6020026020010151602001518b83815181106111295761112961388b565b602002602001015160ff16815181106111445761114461388b565b60200260200101907bffffffffffffffffffffffffffffffffffffffffffffffffffffffff191690817bffffffffffffffffffffffffffffffffffffffffffffffffffffffff19168152505060ff8a82815181106111a4576111a461388b565b602002602001015160ff16106111b957600080fd5b8981815181106111cb576111cb61388b565b6020026020010180518091906111e0906138b7565b60ff1690525060019150611201565b806111f981613871565b9150506110ba565b5080156112105750505061135b565b818b89815181106112235761122361388b565b60209081029190910101516001600160a01b03909116905260018a015461ffff1667ffffffffffffffff81111561125c5761125c613372565b604051908082528060200260200182016040528015611285578160200160208202803683370190505b508b89815181106112985761129861388b565b602002602001015160200181905250828b89815181106112ba576112ba61388b565b6020026020010151602001516000815181106112d8576112d861388b565b60200260200101907bffffffffffffffffffffffffffffffffffffffffffffffffffffffff191690817bffffffffffffffffffffffffffffffffffffffffffffffffffffffff19168152505060018989815181106113385761133861388b565b60ff909216602092830291909101909101528761135481613871565b9850505050505b8061136581613871565b91505061106b565b5050808061137a90613871565b915050611048565b5060005b828110156113e95760008482815181106113a2576113a261388b565b602002602001015160ff16905060008783815181106113c3576113c361388b565b6020026020010151602001519050818152505080806113e190613871565b915050611386565b508185525050505090565b60006105f06125c0565b60006105f0612128565b611410612128565b6001600160a01b0316336001600160a01b03161461144157604051632f7a8ee160e01b815260040160405180910390fd5b7f177481ac65e4292921c69f62d1cc7f57541261e5d61c8175cf4e36a01c9bfc96805473ffffffffffffffffffffffffffffffffffffffff19166001600160a01b03831617905550565b50565b610805828261262f565b6114a383838361273d565b505050565b6001600160a01b0380841660009081527f8c151f2b073b889ff2e1725375750783c091724f29d93246786f4cca8f047dbf60209081526040808320868452825280832093851683529290529081205460ff165b949350505050565b606061151160008484612834565b9392505050565b7f177481ac65e4292921c69f62d1cc7f57541261e5d61c8175cf4e36a01c9bfc94546060907f177481ac65e4292921c69f62d1cc7f57541261e5d61c8175cf4e36a01c9bfc939061ffff1667ffffffffffffffff81111561157b5761157b613372565b6040519080825280602002602001820160405280156115a4578160200160208202803683370190505b50915060008060005b600184015461ffff1682101561168d576000818152600285016020526040812054905b600881101561167857836115e381613871565b600188015490955061ffff168511905061167857600581901b82901b6001600160e01b0319811660009081526020889052604090205460601c6001600160a01b038a1603611665578088878151811061163e5761163e61388b565b6001600160e01b0319909216602092830291909101909101528561166181613871565b9650505b508061167081613871565b9150506115d0565b5050808061168590613871565b9150506115ad565b5050825250919050565b60008181527f8c151f2b073b889ff2e1725375750783c091724f29d93246786f4cca8f047dc0602052604081205467ffffffffffffffff1661063a565b6001600160e01b0319811660009081527f177481ac65e4292921c69f62d1cc7f57541261e5d61c8175cf4e36a01c9bfc93602081905260409091205460601c9080826117c2577f177481ac65e4292921c69f62d1cc7f57541261e5d61c8175cf4e36a01c9bfc96546001600160a01b0316925082156117c25760405163dc9cc64560e01b81526001600160e01b0319851660048201526001600160a01b0384169063dc9cc64590602401602060405180830381865afa15801561179b573d6000803e3d6000fd5b505050506040513d601f19601f820116820180604052508101906117bf91906138d6565b92505b5050919050565b60606114fb848484612834565b6001600160a01b0380831660009081527f8c151f2b073b889ff2e1725375750783c091724f29d93246786f4cca8f047dbe6020908152604080832093851683529290529081205460ff16611511565b61182d612128565b6001600160a01b0316336001600160a01b03161461185e57604051632f7a8ee160e01b815260040160405180910390fd5b61148b81612a0d565b7fb40d49f5a32ade8065d600aab18d96945a09d7fbb3e248099e22f7c4c10e01898054819060ff16156118e15760405162461bcd60e51b815260206004820152600b60248201527f496e697469616c697a656400000000000000000000000000000000000000000060448201526064015b60405180910390fd5b6001600160a01b038316611df75760408051600d8082526101c08201909252600091602082016101a08036833701905050905060007f2c40805900000000000000000000000000000000000000000000000000000000828261194281613871565b9350815181106119545761195461388b565b6001600160e01b0319909216602092830291909101909101527f9142376500000000000000000000000000000000000000000000000000000000828261199981613871565b9350815181106119ab576119ab61388b565b6001600160e01b03199092166020928302919091019091015263dc9cc64560e01b82826119d781613871565b9350815181106119e9576119e961388b565b6001600160e01b0319909216602092830291909101909101527f1f931c1c000000000000000000000000000000000000000000000000000000008282611a2e81613871565b935081518110611a4057611a4061388b565b6001600160e01b0319909216602092830291909101909101527f7a0ed627000000000000000000000000000000000000000000000000000000008282611a8581613871565b935081518110611a9757611a9761388b565b6001600160e01b0319909216602092830291909101909101527fadfca15e000000000000000000000000000000000000000000000000000000008282611adc81613871565b935081518110611aee57611aee61388b565b6001600160e01b0319909216602092830291909101909101527f52ef6b2c000000000000000000000000000000000000000000000000000000008282611b3381613871565b935081518110611b4557611b4561388b565b6001600160e01b0319909216602092830291909101909101527fcdffacc6000000000000000000000000000000000000000000000000000000008282611b8a81613871565b935081518110611b9c57611b9c61388b565b6001600160e01b0319909216602092830291909101909101526301ffc9a760e01b8282611bc881613871565b935081518110611bda57611bda61388b565b6001600160e01b0319909216602092830291909101909101527f8da5cb5b000000000000000000000000000000000000000000000000000000008282611c1f81613871565b935081518110611c3157611c3161388b565b6001600160e01b0319909216602092830291909101909101527f8ab5150a000000000000000000000000000000000000000000000000000000008282611c7681613871565b935081518110611c8857611c8861388b565b6001600160e01b0319909216602092830291909101909101527ff2fde38b000000000000000000000000000000000000000000000000000000008282611ccd81613871565b935081518110611cdf57611cdf61388b565b6001600160e01b0319909216602092830291909101909101527f79ba5097000000000000000000000000000000000000000000000000000000008282611d2481613871565b935081518110611d3657611d3661388b565b6001600160e01b03199290921660209283029190910190910152604080516001808252818301909252600091816020015b60408051606080820183526000808352602083015291810191909152815260200190600190039081611d6757905050604080516060810190915230815290915060208101600081526020018481525081600081518110611dc957611dc961388b565b6020026020010181905250611def8160006040518060200160405280600081525061215b565b505050611e3f565b7f177481ac65e4292921c69f62d1cc7f57541261e5d61c8175cf4e36a01c9bfc96805473ffffffffffffffffffffffffffffffffffffffff19166001600160a01b0385161790555b611e5163dc9cc64560e01b6001612531565b611e7c7fbd02b73c000000000000000000000000000000000000000000000000000000006001612531565b611ea77f1f931c1c000000000000000000000000000000000000000000000000000000006001612531565b611ed27f48e2b093000000000000000000000000000000000000000000000000000000006001612531565b611ee46301ffc9a760e01b6001612531565b611f0f7f7f5828d0000000000000000000000000000000000000000000000000000000006001612531565b610ee384612a5b565b7f177481ac65e4292921c69f62d1cc7f57541261e5d61c8175cf4e36a01c9bfc9390565b7ffc606c433378e3a7e0a6a531deac289b66caa1b4aa8554fd4ab2c6f1570f92d890565b7f8a22373512790c48b83a1fe2efdd2888d4a917bcdc24d0adf63e60f67168046090565b6001600160e01b0319811660009081527ffc606c433378e3a7e0a6a531deac289b66caa1b4aa8554fd4ab2c6f1570f92d8602052604090205460ff1680612087576000611ff87f177481ac65e4292921c69f62d1cc7f57541261e5d61c8175cf4e36a01c9bfc96546001600160a01b031690565b90506001600160a01b0381161561208557818061208257506040516301ffc9a760e01b81526001600160e01b0319841660048201526001600160a01b038216906301ffc9a790602401602060405180830381865afa15801561205e573d6000803e3d6000fd5b505050506040513d601f19601f8201168201806040525081019061208291906138f3565b91505b505b919050565b6000763d602d80600a3d3981f3363d3d373d3d3d363d730000008260601b60e81c176000526e5af43d82803e903d91602b57fd5bf38260781b17602052603760096000f090506001600160a01b0381166120875760405162461bcd60e51b815260206004820152601660248201527f455243313136373a20637265617465206661696c65640000000000000000000060448201526064016118d8565b60007f8a22373512790c48b83a1fe2efdd2888d4a917bcdc24d0adf63e60f6716804605b546001600160a01b0316919050565b7f177481ac65e4292921c69f62d1cc7f57541261e5d61c8175cf4e36a01c9bfc94547f177481ac65e4292921c69f62d1cc7f57541261e5d61c8175cf4e36a01c9bfc939061ffff8116908190600090600716156121ca5750600381901c60009081526002840160205260409020545b60005b87518110156122c85760008882815181106121ea576121ea61388b565b6020026020010151905060008160200151905081604001515160000361223c576040517feb6c3aeb00000000000000000000000000000000000000000000000000000000815260040160405180910390fd5b6000816002811115612250576122506138a1565b0361226b5761226187868685612ae2565b90955093506122be565b600181600281111561227f5761227f6138a1565b036122935761228e8783612c3f565b6122be565b60028160028111156122a7576122a76138a1565b036122be576122b887868685612dd5565b90955093505b50506001016121cd565b50828214612301576001840180547fffffffffffffffffffffffffffffffffffffffffffffffffffffffffffff00001661ffff84161790555b600782161561232357600382901c600090815260028501602052604090208190555b7f8faa70878671ccd212d20771b795c50af8fd3ff6cf27f4bde57e5d4de0aeb67387878760405161235693929190613910565b60405180910390a1612368868661305d565b50505050505050565b60408051336024820152604480820184905282518083039091018152606490910182526020810180517bffffffffffffffffffffffffffffffffffffffffffffffffffffffff167f25f367040000000000000000000000000000000000000000000000000000000017905290516000918291829130916123f191906139f7565b600060405180830381855afa9150503d806000811461242c576040519150601f19603f3d011682016040523d82523d6000602084013e612431565b606091505b509150915081612445575060009392505050565b808060200190518101906117bf91906138f3565b60008181527f8c151f2b073b889ff2e1725375750783c091724f29d93246786f4cca8f047dc06020526040812080547f8c151f2b073b889ff2e1725375750783c091724f29d93246786f4cca8f047dbe9267ffffffffffffffff90911691906124c183613a13565b82546101009290920a67ffffffffffffffff81810219909316918316021790915560008481526002840160209081526040918290205491519190921681528492507fc6621ccb8f3f5a04bb6502154b2caf6adf5983fe76dfef1cfc9c42e3579db444910160405180910390a25050565b6001600160e01b03198083169003612575576040517fb0a19dd500000000000000000000000000000000000000000000000000000000815260040160405180910390fd5b6001600160e01b03199190911660009081527ffc606c433378e3a7e0a6a531deac289b66caa1b4aa8554fd4ab2c6f1570f92d860205260409020805460ff1916911515919091179055565b60007f24aa1f7b31fd188a8d3ecfb06bc55c806040e59b03bd4396283442fce661789061214c565b6125f133612a5b565b7f24aa1f7b31fd188a8d3ecfb06bc55c806040e59b03bd4396283442fce6617890805473ffffffffffffffffffffffffffffffffffffffff19169055565b6001600160a01b03821633036126ad5760405162461bcd60e51b815260206004820152602960248201527f455243313135353a2073657474696e6720617070726f76616c2073746174757360448201527f20666f722073656c66000000000000000000000000000000000000000000000060648201526084016118d8565b60007f8c151f2b073b889ff2e1725375750783c091724f29d93246786f4cca8f047dbe336000818152602083815260408083206001600160a01b03891680855290835292819020805460ff1916881515908117909155905190815293945090927f17307eab39ab6107e8899845ad3d59bd9653f200f220920489ca2b5937696c31910160405180910390a3505050565b6001600160a01b03821633036127955760405162461bcd60e51b815260206004820181905260248201527f53657474696e672064656c65676174652073746174757320666f722073656c6660448201526064016118d8565b60007f8c151f2b073b889ff2e1725375750783c091724f29d93246786f4cca8f047dbe336000818152600183016020908152604080832089845282528083206001600160a01b03891680855290835292819020805460ff19168815159081179091559051938452939450909187917ff0ddb3b04746704017f9aa8bd728fcc2c1d11675041205350018915f5e4750a0910160405180910390a450505050565b60608167ffffffffffffffff81111561284f5761284f613372565b60405190808252806020026020018201604052801561288257816020015b606081526020019060019003908161286d5790505b50905060005b82811015612a0557841561294d5760008484838181106128aa576128aa61388b565b90506020028101906128bc9190613a3a565b6128cb91602491600491613a9f565b6128d491613ac9565b905085811461294b5760405162461bcd60e51b815260206004820152603460248201527f6d756c746963616c6c3a20416c6c207265636f726473206d757374206861766560448201527f2061206d61746368696e67206e616d656861736800000000000000000000000060648201526084016118d8565b505b600080308686858181106129635761296361388b565b90506020028101906129759190613a3a565b604051612983929190613ae7565b600060405180830381855af49150503d80600081146129be576040519150601f19603f3d011682016040523d82523d6000602084013e6129c3565b606091505b5091509150816129d257600080fd5b808484815181106129e5576129e561388b565b6020026020010181905250505080806129fd90613871565b915050612888565b509392505050565b7f24aa1f7b31fd188a8d3ecfb06bc55c806040e59b03bd4396283442fce6617890805473ffffffffffffffffffffffffffffffffffffffff19166001600160a01b03831617905561148b8181565b7f8a22373512790c48b83a1fe2efdd2888d4a917bcdc24d0adf63e60f67168046080546040516001600160a01b038481169216907f8be0079c531659141344cd1fd0a4f28419497f9722a3daafe3b4186f6b6457e090600090a3805473ffffffffffffffffffffffffffffffffffffffff19166001600160a01b0392909216919091179055565b805160009081906001600160a01b03163014801590612b0a575082516001600160a01b03163b155b15612b2857604051633ddc5cab60e21b815260040160405180910390fd5b60005b836040015151811015612c3257600084604001518281518110612b5057612b5061388b565b6020908102919091018101516001600160e01b031981166000908152918a9052604090912054909150606081901c15612bb5576040517f92474ee200000000000000000000000000000000000000000000000000000000815260040160405180910390fd5b85516001600160e01b0319838116600081815260208d90526040902060609390931b6bffffffffffffffffffffffff19168b1790925560058a901b60e090811692831c91831c19999099161797819003612c2357600389901c600090815260028b0160205260408120989098555b50505060019586019501612b2b565b5093959294509192505050565b80516001600160a01b03163b612c6857604051633ddc5cab60e21b815260040160405180910390fd5b60005b8160400151518110156114a357600082604001518281518110612c9057612c9061388b565b6020908102919091018101516001600160e01b03198116600090815291869052604090912054909150606081901c80612cf5576040517f6fc4b52e00000000000000000000000000000000000000000000000000000000815260040160405180910390fd5b306001600160a01b03821603612d37576040517fe983573100000000000000000000000000000000000000000000000000000000815260040160405180910390fd5b84600001516001600160a01b0316816001600160a01b031603612d86576040517f617557e600000000000000000000000000000000000000000000000000000000815260040160405180910390fd5b5083516001600160e01b031992909216600090815260208690526040902060609290921b6bffffffffffffffffffffffff19166bffffffffffffffffffffffff91909116179055600101612c6b565b805160009081906001600160a01b031615612e1c576040517feacd242400000000000000000000000000000000000000000000000000000000815260040160405180910390fd5b600385901c6007861660005b85604001515181101561304957600086604001518281518110612e4d57612e4d61388b565b6020908102919091018101516001600160e01b031981166000908152918c9052604090912054909150606081901c612eb1576040517f6fc4b52e00000000000000000000000000000000000000000000000000000000815260040160405180910390fd5b30606082901c03612eee576040517fe983573100000000000000000000000000000000000000000000000000000000815260040160405180910390fd5b6000899003612f1a57600019909401600081815260028c01602052604090205498509360079350612f22565b600019909301925b600584901b89901b6000806001600160e01b031980841690861614612f7e576001600160e01b03198316600090815260208f90526040902080546bffffffffffffffffffffffff19166bffffffffffffffffffffffff86161790555b50506001600160e01b03198316600090815260208d90526040812055611fff600383901c1660e0600584901b16878214612fe157600082815260028f016020526040902080546001600160e01b031980841c19909116908516831c17905561301a565b80837bffffffffffffffffffffffffffffffffffffffffffffffffffffffff1916901c816001600160e01b031960001b901c198d16179b505b8660000361303857600088815260028f01602052604081208190559b505b505060019093019250612e28915050565b5060039190911b1796939550929350505050565b8051156001600160a01b03831615146130a2576040517f26df4ccd00000000000000000000000000000000000000000000000000000000815260040160405180910390fd5b6001600160a01b03821615610805576001600160a01b03821630146130e9576001600160a01b0382163b6130e957604051633ddc5cab60e21b815260040160405180910390fd5b6000826001600160a01b03168260405161310391906139f7565b600060405180830381855af49150503d806000811461313e576040519150601f19603f3d011682016040523d82523d6000602084013e613143565b606091505b50509050806114a3573d6000803e3d6000fd5b80356001600160e01b03198116811461208757600080fd5b60006020828403121561318057600080fd5b61151182613156565b60008083601f84011261319b57600080fd5b50813567ffffffffffffffff8111156131b357600080fd5b6020830191508360208260051b85010111156131ce57600080fd5b9250929050565b6001600160a01b038116811461148b57600080fd5b60008060008060006060868803121561320257600080fd5b853567ffffffffffffffff8082111561321a57600080fd5b61322689838a01613189565b90975095506020880135915061323b826131d5565b9093506040870135908082111561325157600080fd5b818801915088601f83011261326557600080fd5b81358181111561327457600080fd5b89602082850101111561328657600080fd5b9699959850939650602001949392505050565b6000602082840312156132ab57600080fd5b5035919050565b600080604083850312156132c557600080fd5b82356132d0816131d5565b915060208301356132e0816131d5565b809150509250929050565b6020808252825182820181905260009190848201906040850190845b8181101561332c5783516001600160a01b031683529284019291840191600101613307565b50909695505050505050565b801515811461148b57600080fd5b6000806040838503121561335957600080fd5b61336283613156565b915060208301356132e081613338565b634e487b7160e01b600052604160045260246000fd5b6040516060810167ffffffffffffffff811182821017156133ab576133ab613372565b60405290565b604051601f8201601f1916810167ffffffffffffffff811182821017156133da576133da613372565b604052919050565b600067ffffffffffffffff8211156133fc576133fc613372565b5060051b60200190565b600082601f83011261341757600080fd5b8135602061342c613427836133e2565b6133b1565b82815260059290921b8401810191818101908684111561344b57600080fd5b8286015b8481101561346d5761346081613156565b835291830191830161344f565b509695505050505050565b6000806040838503121561348b57600080fd5b823567ffffffffffffffff8111156134a257600080fd5b6134ae85828601613406565b92505060208301356132e081613338565b600081518084526020808501945080840160005b838110156134f95781516001600160e01b031916875295820195908201906001016134d3565b509495945050505050565b60006020808301818452808551808352604092508286019150828160051b87010184880160005b8381101561357357888303603f19018552815180516001600160a01b03168452870151878401879052613560878501826134bf565b958801959350509086019060010161352b565b509098975050505050505050565b60006020828403121561359357600080fd5b8135611511816131d5565b600080604083850312156135b157600080fd5b8235613362816131d5565b6000806000606084860312156135d157600080fd5b8335925060208401356135e3816131d5565b915060408401356135f381613338565b809150509250925092565b60008060006060848603121561361357600080fd5b833561361e816131d5565b92506020840135915060408401356135f3816131d5565b6000806020838503121561364857600080fd5b823567ffffffffffffffff81111561365f57600080fd5b61366b85828601613189565b90969095509350505050565b60005b8381101561369257818101518382015260200161367a565b50506000910152565b600081518084526136b3816020860160208601613677565b601f01601f19169290920160200192915050565b6000602080830181845280855180835260408601915060408160051b870101925083870160005b8281101561371c57603f1988860301845261370a85835161369b565b945092850192908501906001016136ee565b5092979650505050505050565b60208152600061151160208301846134bf565b60008060006040848603121561375157600080fd5b83359250602084013567ffffffffffffffff81111561376f57600080fd5b61377b86828701613189565b9497909650939450505050565b6000613796613427846133e2565b80848252602080830192508560051b8501368111156137b457600080fd5b855b8181101561384f57803567ffffffffffffffff808211156137d75760008081fd5b8189019150606082360312156137ed5760008081fd5b6137f5613388565b8235613800816131d5565b815282860135600381106138145760008081fd5b818701526040838101358381111561382c5760008081fd5b61383836828701613406565b9183019190915250875250509382019382016137b6565b50919695505050505050565b634e487b7160e01b600052601160045260246000fd5b600060001982036138845761388461385b565b5060010190565b634e487b7160e01b600052603260045260246000fd5b634e487b7160e01b600052602160045260246000fd5b600060ff821660ff81036138cd576138cd61385b565b60010192915050565b6000602082840312156138e857600080fd5b8151611511816131d5565b60006020828403121561390557600080fd5b815161151181613338565b6000606080830181845280875180835260808601915060808160051b87010192506020808a016000805b848110156139c7577fffffffffffffffffffffffffffffffffffffffffffffffffffffffffffffff808a880301865282516001600160a01b038151168852848101516003811061399857634e487b7160e01b84526021600452602484fd5b888601526040908101519088018990526139b4898901826134bf565b975050948301949183019160010161393a565b5050506001600160a01b03891690870152505083810360408501526139ec818661369b565b979650505050505050565b60008251613a09818460208701613677565b9190910192915050565b600067ffffffffffffffff808316818103613a3057613a3061385b565b6001019392505050565b60008083357fffffffffffffffffffffffffffffffffffffffffffffffffffffffffffffffe1843603018112613a6f57600080fd5b83018035915067ffffffffffffffff821115613a8a57600080fd5b6020019150368190038213156131ce57600080fd5b60008085851115613aaf57600080fd5b83861115613abc57600080fd5b5050820193919092039150565b8035602083101561063a57600019602084900360031b1b1692915050565b818382376000910190815291905056fea2646970667358221220d99d90b20ad6e284808e2bae874738388aa6b47c6de1868488937a0ad85c490364736f6c63430008110033",
  "devdoc": {
    "kind": "dev",
    "methods": {
      "approve(bytes32,address,bool)": {
        "details": "Approve a delegate to be able to updated records on a node."
      },
      "clearRecords(bytes32)": {
        "params": {
          "node": "The node to update."
        }
      },
      "diamondCut((address,uint8,bytes4[])[],address,bytes)": {
        "params": {
          "data": "optional initialization function call data",
          "facetCuts": "array of structured Diamond facet update data",
          "target": "optional target of initialization delegatecall"
        }
      },
      "facetAddress(bytes4)": {
        "params": {
          "selector": "function selector to query"
        },
        "returns": {
          "facet": "facet address (zero address if not found)"
        }
      },
      "facetAddresses()": {
        "returns": {
          "addresses": "array of facet addresses"
        }
      },
      "facetFunctionSelectors(address)": {
        "params": {
          "facet": "address of facet to query"
        },
        "returns": {
          "selectors": "array of function selectors"
        }
      },
      "facets()": {
        "returns": {
          "diamondFacets": "array of structured facet data"
        }
      },
      "getFallbackAddress()": {
        "returns": {
          "fallbackAddress": "address of fallback implementation"
        }
      },
      "isApprovedFor(address,bytes32,address)": {
        "details": "Check to see if the delegate has been approved by the owner for the node."
      },
      "isApprovedForAll(address,address)": {
        "details": "See {IERC1155-isApprovedForAll}."
      },
      "owner()": {
        "returns": {
          "_0": "contract owner"
        }
      },
      "setApprovalForAll(address,bool)": {
        "details": "See {IERC1155-setApprovalForAll}."
      },
      "setFallbackAddress(address)": {
        "params": {
          "fallbackAddress": "address of fallback implementation"
        }
      },
      "transferOwnership(address)": {
        "params": {
          "account": "address of new owner"
        }
      }
    },
    "version": 1
  },
  "userdoc": {
    "kind": "user",
    "methods": {
      "acceptOwnership()": {
        "notice": "accept transfer of contract ownership"
      },
      "clearRecords(bytes32)": {
        "notice": "Increments the record version associated with an ENS node. May only be called by the owner of that node in the ENS registry."
      },
      "clone()": {
        "notice": "Clone DiamondResolver to customize your own resolver"
      },
      "diamondCut((address,uint8,bytes4[])[],address,bytes)": {
        "notice": "update diamond facets and optionally execute arbitrary initialization function"
      },
      "facetAddress(bytes4)": {
        "notice": "get the address of the facet associated with given selector"
      },
      "facetAddresses()": {
        "notice": "get addresses of all facets used by diamond"
      },
      "facetFunctionSelectors(address)": {
        "notice": "get all selectors for given facet address"
      },
      "facets()": {
        "notice": "get all facets and their selectors"
      },
      "getFallbackAddress()": {
        "notice": "query the address of the fallback implementation"
      },
      "nomineeOwner()": {
        "notice": "get the nominated owner who has permission to call acceptOwnership"
      },
      "owner()": {
        "notice": "get the ERC173 contract owner"
      },
      "setFallbackAddress(address)": {
        "notice": "set the address of the fallback implementation"
      },
      "transferOwnership(address)": {
        "notice": "transfer contract ownership to new account"
      }
    },
    "version": 1
  },
  "storageLayout": {
    "storage": [],
    "types": null
  }
}