{
  "address": "0x88D711a0BAc694e7C2D71Fcd7AC7896A02970911",
  "abi": [
    {
      "inputs": [],
      "name": "NotDiamondOwner",
      "type": "error"
    },
    {
      "inputs": [],
      "name": "Unauthorised",
      "type": "error"
    },
    {
      "anonymous": false,
      "inputs": [
        {
          "indexed": true,
          "internalType": "address",
          "name": "owner",
          "type": "address"
        },
        {
          "indexed": true,
          "internalType": "address",
          "name": "operator",
          "type": "address"
        },
        {
          "indexed": false,
          "internalType": "bool",
          "name": "approved",
          "type": "bool"
        }
      ],
      "name": "ApprovalForAll",
      "type": "event"
    },
    {
      "anonymous": false,
      "inputs": [
        {
          "indexed": false,
          "internalType": "address",
          "name": "owner",
          "type": "address"
        },
        {
          "indexed": true,
          "internalType": "bytes32",
          "name": "node",
          "type": "bytes32"
        },
        {
          "indexed": true,
          "internalType": "address",
          "name": "delegate",
          "type": "address"
        },
        {
          "indexed": true,
          "internalType": "bool",
          "name": "approved",
          "type": "bool"
        }
      ],
      "name": "Approved",
      "type": "event"
    },
    {
      "anonymous": false,
      "inputs": [
        {
          "indexed": true,
          "internalType": "address",
          "name": "operator",
          "type": "address"
        },
        {
          "indexed": false,
          "internalType": "bool",
          "name": "approved",
          "type": "bool"
        }
      ],
      "name": "SetWhitelisted",
      "type": "event"
    },
    {
      "anonymous": false,
      "inputs": [
        {
          "indexed": true,
          "internalType": "bytes32",
          "name": "node",
          "type": "bytes32"
        },
        {
          "indexed": false,
          "internalType": "uint64",
          "name": "newVersion",
          "type": "uint64"
        }
      ],
      "name": "VersionChanged",
      "type": "event"
    },
    {
      "inputs": [
        {
          "internalType": "address",
          "name": "sender",
          "type": "address"
        },
        {
          "internalType": "bytes32",
          "name": "node",
          "type": "bytes32"
        }
      ],
      "name": "isAuthorised",
      "outputs": [
        {
          "internalType": "bool",
          "name": "",
          "type": "bool"
        }
      ],
      "stateMutability": "view",
      "type": "function"
    },
    {
      "inputs": [
        {
          "internalType": "address",
          "name": "operator",
          "type": "address"
        },
        {
          "internalType": "bool",
          "name": "approved",
          "type": "bool"
        }
      ],
      "name": "setWhitelisted",
      "outputs": [],
      "stateMutability": "nonpayable",
      "type": "function"
    }
  ],
  "transactionHash": "0xd1c418d493b6a3afe4d9ed5fbd9ea2fe6ec41a986182c0eabc75f9c8dd3b781d",
  "args": [],
  "numDeployments": 1,
  "solcInputHash": "413b05d746d6a50904b99c2ba0142a67",
  "bytecode": "0x608060405234801561001057600080fd5b506105dc806100206000396000f3fe608060405234801561001057600080fd5b50600436106100365760003560e01c806325f367041461003b5780639281aa0b14610062575b600080fd5b61004e6100493660046104f9565b610077565b604051901515815260200160405180910390f35b610075610070366004610533565b6100cc565b005b600061008383836101d3565b806100c557506001600160a01b03831660009081527f378200da64021ea95e57f25539bdb5dedb78afa36a3f553f54a02f28ced4961a602052604090205460ff165b9392505050565b7f8a22373512790c48b83a1fe2efdd2888d4a917bcdc24d0adf63e60f671680460546001600160a01b0316331461012f576040517f3058081000000000000000000000000000000000000000000000000000000000815260040160405180910390fd5b60007f378200da64021ea95e57f25539bdb5dedb78afa36a3f553f54a02f28ced4961a6001600160a01b0384166000818152602083815260409182902080547fffffffffffffffffffffffffffffffffffffffffffffffffffffffffffffff0016871515908117909155915191825292935090917f26742d25b283cf51a0e3c4183d934871ed96d1bd33cf40706f87a94f29f686ac910160405180910390a2505050565b600080306001600160a01b0316637b1039996040518163ffffffff1660e01b8152600401602060405180830381865afa158015610214573d6000803e3d6000fd5b505050506040513d601f19601f82011682018060405250810190610238919061056c565b90506000816001600160a01b0316633f15457f6040518163ffffffff1660e01b8152600401602060405180830381865afa15801561027a573d6000803e3d6000fd5b505050506040513d601f19601f8201168201806040525081019061029e919061056c565b6001600160a01b03166302571be3856040518263ffffffff1660e01b81526004016102cb91815260200190565b602060405180830381865afa1580156102e8573d6000803e3d6000fd5b505050506040513d601f19601f8201168201806040525081019061030c919061056c565b6040517fc161146e0000000000000000000000000000000000000000000000000000000081526001600160a01b0380831660048301529192509083169063c161146e90602401602060405180830381865afa15801561036f573d6000803e3d6000fd5b505050506040513d601f19601f820116820180604052508101906103939190610589565b1561041d576040517f6352211e000000000000000000000000000000000000000000000000000000008152600481018590526001600160a01b03821690636352211e90602401602060405180830381865afa1580156103f6573d6000803e3d6000fd5b505050506040513d601f19601f8201168201806040525081019061041a919061056c565b90505b846001600160a01b0316816001600160a01b0316148061048157506001600160a01b0380821660009081527f8c151f2b073b889ff2e1725375750783c091724f29d93246786f4cca8f047dbe602090815260408083209389168352929052205460ff165b806104d857506001600160a01b0380821660009081527f8c151f2b073b889ff2e1725375750783c091724f29d93246786f4cca8f047dbf6020908152604080832088845282528083209389168352929052205460ff165b95945050505050565b6001600160a01b03811681146104f657600080fd5b50565b6000806040838503121561050c57600080fd5b8235610517816104e1565b946020939093013593505050565b80151581146104f657600080fd5b6000806040838503121561054657600080fd5b8235610551816104e1565b9150602083013561056181610525565b809150509250929050565b60006020828403121561057e57600080fd5b81516100c5816104e1565b60006020828403121561059b57600080fd5b81516100c58161052556fea264697066735822122042416a04bd84583f32232e33c52d19733ad81c0f5b837d2e0f276cd4c506957064736f6c63430008110033",
  "devdoc": {
    "kind": "dev",
    "methods": {},
    "version": 1
  },
  "userdoc": {
    "kind": "user",
    "methods": {},
    "version": 1
  },
  "storageLayout": {
    "storage": [],
    "types": null
  }
}